:040000000DEF00F010
:0400080049EF2DF09F
:06001800FF0017EF33F0BA
:101000000030313233343536373839414243444584
:0310100046000097
:101014000E50800B176E0E500E24196E0DAE15EF88
:1010240008F017EF08F018EF08F019801950D8B439
:101034001EEF08F020EF08F035EF08F01928D8A4C7
:1010440026EF08F028EF08F030EF08F0000E0B6EE2
:10105400000E0C6E000E0D6E000E0E6E0D8E000E48
:101064000E6E3DEF08F0000E0B6E000E0C6E000EBF
:101074000D6E000E0E6E1250800B186E175018185D
:10108400D8B447EF08F049EF08F04AEF08F0178C9E
:1010940012501224186E11AE52EF08F054EF08F0FB
:1010A40055EF08F018801850D8B45BEF08F05DEFE6
:1010B40008F072EF08F01828D8A463EF08F065EF81
:1010C40008F06DEF08F0000E0F6E000E106E000EAB
:1010D400116E000E126E118E000E126E7AEF08F071
:1010E400000E0F6E000E106E000E116E000E126ECA
:1010F4001950185CD8B081EF08F083EF08F0AAEF1C
:1011040008F017AC88EF08F08AEF08F08CEF08F0CD
:10111400800E171A19C01AF018C019F01AC018F066
:101124000BC01AF00FC00BF01AC00FF00CC01AF06D
:1011340010C00CF01AC010F00DC01AF011C00DF060
:101144001AC011F00EC01AF012C00EF01AC012F03C
:10115400000E1A6E195018C013F0146A135E000EB4
:10116400145A14BEBFEF08F0145009E11A0E135CB0
:10117400D8A0BFEF08F0C1EF08F0F8EF08F00B506B
:101184000C100D100E10D8A4CAEF08F0CDEF08F023
:10119400010ECEEF08F0000E1A6E000E0B6E000E5C
:1011A4000C6E000E0D6E000E0E6E18C019F001EFDD
:1011B40009F01AA0E0EF08F0E2EF08F0E8EF08F019
:1011C400D8901A3001091A6EEAEF08F0D8901A3252
:1011D4000BA0EFEF08F0F1EF08F0F2EF08F01A8E31
:1011E4000E340E320D320C320B32192A1850195C9F
:1011F400D8A0FFEF08F001EF09F0DBEF08F017BC0F
:1012040006EF09F008EF09F048EF09F01950D8A4E7
:101214000EEF09F010EF09F01AEF09F0000E0B6E53
:10122400000E0C6E000E0D6E000E0E6E69EF0AF0CD
:101234000F500B2610500C2211500D2212500E226A
:101244000EA027EF09F029EF09F0D5EF09F01AA055
:101254002EEF09F030EF09F036EF09F0D8901A308C
:1012640001091A6E38EF09F0D8901A320BA03DEF3D
:1012740009F03FEF09F040EF09F01A8E0E340E32F8
:101284000D320C320B32192AD5EF09F00F500B5CDA
:1012940010500C5811500D580E50800A136E1250F5
:1012A400800A1358D8B059EF09F05BEF09F086EFC4
:1012B40009F00B500F5C136E0C501058146E0D5047
:1012C4001158156E0E501258166EFF0E13240B6E25
:1012D400FF0E14200C6EFF0E15200D6EFF0E16204F
:1012E4000E6E800E171A1A6C1A50D8A47CEF09F0EF
:1012F4007EEF09F08EEF09F0010E0B26000E0C2292
:101304000D220E228EEF09F00F500B5E10500C5A76
:1013140011500D5A12500E5A0B500C100D100E1085
:10132400D8A497EF09F099EF09F0CEEF09F01A501D
:10133400D8A49FEF09F0A1EF09F0CEEF09F0000E59
:101344000B6E000E0C6E000E0D6E000E0E6E69EF2D
:101354000AF0D8900B360C360D360E361AAEB5EFB1
:1013640009F0B7EF09F0B8EF09F00B801AA0BDEF50
:1013740009F0BFEF09F0C3EF09F0D8801A36C5EFC2
:1013840009F0D8901A361950D8B4CBEF09F0CDEF44
:1013940009F0CEEF09F019060DAED3EF09F0D5EF41
:1013A40009F0ABEF09F0000E186E1AAEDCEF09F08D
:1013B400DEEF09F0F6EF09F01AC013F07F0E1316F2
:1013C400D8B4E7EF09F0E9EF09F0EDEF09F0010E09
:1013D400186EF6EF09F00BA0F2EF09F0F4EF09F044
:1013E400F6EF09F0E9EF09F01850D8B4FCEF09F072
:1013F400FEEF09F029EF0AF0010E0B26000E0C2275
:101404000D220E220EA009EF0AF00BEF0AF029EFCD
:101414000AF00BC013F00CC014F00DC015F00EC090
:1014240016F01634163215321432133213C00BF080
:1014340014C00CF015C00DF016C00EF01928D8B465
:1014440026EF0AF028EF0AF029EF0AF0192A1928E2
:10145400D8B42FEF0AF031EF0AF039EF0AF019503F
:10146400D8A437EF0AF039EF0AF04BEF0AF0000E78
:101474000B6E000E0C6E000E0D6E000E0E6E1950EB
:10148400D8A447EF0AF049EF0AF04BEF0AF0000E38
:10149400176E19A050EF0AF052EF0AF055EF0AF058
:1014A4000D8E56EF0AF00D9ED89019300E6E17AEC1
:1014B4005EEF0AF060EF0AF061EF0AF00E8E0BC0E7
:1014C4000BF00CC00CF00DC00DF00EC00EF01200AD
:1014D4000001B451B511D8B472EF0AF074EF0AF0F8
:1014E400C2EF0CF020EE2DF0B451D926B551DA221A
:1014F400DE50DE10D8B481EF0AF083EF0AF0C2EFB9
:101504000CF020EE2FF0B451D926B551DA22DE507A
:10151400DE10D8A490EF0AF092EF0AF094EF0AF0EC
:10152400C2EF0CF0B4C0A4F0B5C0A5F0B2EC22F048
:101534006000D3F2D9FF6000D7F2DAFF070EDE189D
:10154400D8A4A7EF0AF0A9EF0AF0B1EF0AF0B4C0EB
:1015540021F0B5C022F0E0EC34F0C2EF0CF0000151
:1015640020EE0FF0B451D926B551DA22DF50D8B4A9
:10157400BEEF0AF0C0EF0AF08FEF0CF0B4C021F018
:10158400B5C022F0E0EC34F06000D3F2D9FF600083
:10159400D7F2DAFF060EDF6EC2EF0CF0B4C0A6F08D
:1015A400B5C0A7F09AEC10F0C2EF0CF020EE06F0F4
:1015B400B451D926B551DA226F0078FF1BF06F00C1
:1015C40078FF1CF06F0078FF1DF06F0078FF1EF0AD
:1015D40020EE02F0B451D926B551DA226F0078FF1B
:1015E4001FF06F0078FF20F06F0078FF21F06F008C
:1015F40078FF22F07EEC36F0000120EE0AF0B451C0
:10160400D926B551DA2260006FF0DEFF600073F076
:10161400DEFF600077F0DEFF60007BF0DEFF20EE8F
:101624000AF0B451D926B551DA226F0078FF23F0BD
:101634006F0078FF24F06F0078FF25F06F0078FFCB
:1016440026F013EC36F023C0B8F024C0B9F025C05E
:10165400BAF026C0BBF0000120EE3DF0B451D9260B
:10166400B551DA226F0078FF0BF06F0078FF0CF0B1
:101674006F0078FF0DF06F0078FF0EF0B8C00FF028
:10168400B9C010F0BAC011F0BBC012F08CEC27F056
:10169400D8A04FEF0BF051EF0BF070EF0BF0B4C08C
:1016A40021F0B5C022F0E0EC34F0000120EE0AF0A5
:1016B400B451D926B551DA22000EDE6E000EDE6E6C
:1016C400000EDE6E000EDD6E6000D3F2D9FF600006
:1016D400D7F2DAFF030EDF6EC2EF0CF0000120EE4A
:1016E4002DF0B451D926B551DA226F0078FF10F0ED
:1016F4006F0074FF11F04EEC33F0000120EE41F066
:10170400B451D926B551DA226F0078FF0BF06F007F
:1017140078FF0CF06F0078FF0DF06F0078FF0EF08B
:10172400B8C00FF0B9C010F0BAC011F0BBC012F0CD
:101734008CEC27F0D8B0A1EF0BF0A3EF0BF0B2EFD5
:101744000BF0000120EE45F0B451D926B551DA2250
:101754006F0078FFBCF06F0074FFBDF0BFEF0BF0BB
:10176400000120EE47F0B451D926B551DA226F00BA
:1017740078FFBCF06F0074FFBDF0000E0B6E000E1E
:101784000C6E000E0D6E000E0E6E20EE0AF0B451BB
:10179400D926B551DA226F0078FF0FF06F0078FF79
:1017A40010F06F0078FF11F06F0078FF12F08CECEE
:1017B40027F0D8B0E0EF0BF0E2EF0BF0F5EF0BF011
:1017C400B4C027F0B5C028F0B4C00BF0B5C00CF01D
:1017D4003EEC39F0296EBCC02AF0BDC02BF0F9EC08
:1017E40028F006EF0CF0B4C027F0B5C028F0B4C060
:1017F4000BF0B5C00CF051EC39F0296EBCC02AF0E6
:10180400BDC02BF0F9EC28F0000120EE2DF0B4510E
:10181400D926B551DA226F0078FF0BF06F0074FF00
:101824000CF02AEC39F00009D8A41BEF0CF01DEFE2
:101834000CF0C2EF0CF0000120EE2DF0B451D926CB
:10184400B551DA226F0078FF1FF06F0074FF20F0AB
:1018540038EC2AF0C2EF0CF0B4C021F0B5C022F08D
:10186400E0EC34F0000120EE0EF0B451D926B5516D
:10187400DA22DF50D8B441EF0CF043EF0CF04DEF17
:101884000CF06000D3F2D9FF6000D7F2DAFF030E48
:10189400DF6E55EF0CF06000D3F2D9FF6000D7F291
:1018A400DAFF010EDF6E20EE02F0B451D926B551F5
:1018B400DA2210EE06F0B451E126B551E2226F00AF
:1018C4007BFFE6FF6F007BFFE6FF6F007BFFE6FF19
:1018D4006F007BFFE6FF20EE0AF0B451D926B55124
:1018E400DA22000EDE6E000EDE6E000EDE6E000EDC
:1018F400DD6E20EE10F0B451D926B551DA22000E77
:10190400DF6EC2EF0CF0B4C025F0B5C026F0050EB2
:10191400276E5BEC36F0C2EF0CF06000D3F2D9FF17
:101924006000D7F2DAFFDF50B66FB76BB751000A29
:10193400D8B49FEF0CF085EF0CF0B651000AD8B480
:10194400A9EF0AF0010AD8B4A9EF0AF0030AD8B43F
:10195400D0EF0AF0010AD8B4A9EF0AF0070AD8B404
:10196400D8EF0AF0010AD8B42EEF0CF0030AD8B469
:10197400A9EF0AF0010AD8B4A9EF0AF085EF0CF038
:1019840012001C50800B256E1C501C242B6E1BAEA9
:10199400CEEF0CF0D0EF0CF0D1EF0CF02B802B50ED
:1019A400D8B4D7EF0CF0D9EF0CF0ECEF0CF02B28F7
:1019B400D8A4DFEF0CF0E1EF0CF0E9EF0CF0000E2F
:1019C400196E000E1A6E000E1B6E000E1C6E1B8E1E
:1019D400F4EF0CF0000E196E000E1A6E000E1B6E62
:1019E400000E1C6E2050800B251A205020242A6ED5
:1019F4001FAEFFEF0CF001EF0DF002EF0DF02A80A7
:101A04002A50D8B408EF0DF00AEF0DF01DEF0DF0D9
:101A14002A28D8A410EF0DF012EF0DF01AEF0DF0F4
:101A2400000E1D6E000E1E6E000E1F6E000E206E48
:101A34001F8E25EF0DF0000E1D6E000E1E6E000EA3
:101A44001F6E000E206E2A50D8B42BEF0DF02DEF30
:101A54000DF035EF0DF02B50D8A433EF0DF035EF2A
:101A64000DF03FEF0DF0000E196E000E1A6E000E11
:101A74001B6E000E1C6EE9EF0EF01F5019026F0072
:101A8400CCFF30F06F00D0FF31F03050266E276A63
:101A9400286A296A31502C6E2D6A2E6A2F6A1E50CC
:101AA4001A026F00CCFF30F06F00D0FF31F03050DD
:101AB4002626000E27222822292231502C26000E09
:101AC4002D222E222F221D501B026F00CCFF30F03E
:101AD4006F00D0FF31F030502626000E2722282236
:101AE400292231502C26000E2D222E222F2228C0EE
:101AF40029F027C028F026C027F0266A1D501A02B4
:101B04006F00CCFF30F06F00D0FF31F0305026264C
:101B140031502722000E2822000E29221E501902BD
:101B24006F00CCFF30F06F00D0FF31F0305026262C
:101B340031502722000E2822000E292228C029F025
:101B440027C028F026C027F0266A1D5019026F000E
:101B5400CCFF30F06F00D0FF31F0305026263150EA
:101B64002722000E2822000E29221F501A026F007D
:101B7400CCFF30F06F00D0FF31F030502C263150C4
:101B84002D22000E2E22000E2F221E501B026F004B
:101B9400CCFF30F06F00D0FF31F030502C263150A4
:101BA4002D22000E2E22000E2F221F501B026F002A
:101BB400CCFF30F06F00D0FF31F03050216E315047
:101BC400226E236A246A23C024F022C023F021C099
:101BD40022F0216A21502C2622502D2223502E221D
:101BE40024502F2226C021F027C022F028C023F041
:101BF40029C024F0190E04EF0EF0D89024322332B9
:101C040022322132E82EFFEF0DF021502C262250F3
:101C14002D2223502E2224502F2228C029F027C001
:101C240028F026C027F0266A2A502BC021F0226A09
:101C34002126000E2222820E2124306EFF0E222045
:101C4400316E3AEF0EF0D8902C362D362E362F36D4
:101C540029AE2FEF0EF031EF0EF032EF0EF02C80A4
:101C6400D89026362736283629363006D8A03106AD
:101C74002EAE3FEF0EF041EF0EF025EF0EF0000E0A
:101C84002A6E29AE48EF0EF04AEF0EF06EEF0EF01A
:101C9400FF0E2614216EFF0E2714226EFF0E281449
:101CA400236E7F0E2914246E215022102310241039
:101CB400D8B45FEF0EF061EF0EF065EF0EF0010E99
:101CC4002A6E6EEF0EF02CA06AEF0EF06CEF0EF0A1
:101CD4006EEF0EF061EF0EF02A50D8B474EF0EF0F0
:101CE40076EF0EF09AEF0EF0010E2C26000E2D2248
:101CF4002E222F222FA081EF0EF083EF0EF09AEF09
:101D04000EF02CC021F02DC022F02EC023F02FC0E5
:101D140024F02434243223322232213221C02CF004
:101D240022C02DF023C02EF024C02FF0304A312AD7
:101D340031BEA5EF0EF0315008E13028D8A0A5EF50
:101D44000EF0A7EF0EF0B1EF0EF0000E2C6E000EA9
:101D54002D6E800E2E6E7F0E2F6EDFEF0EF031BED5
:101D6400BEEF0EF0315006E13004D8B0BCEF0EF0F7
:101D7400BEEF0EF0CAEF0EF0000E2C6E000E2D6EAC
:101D8400000E2E6E000E2F6E000E256EDFEF0EF08D
:101D940030C02BF0FF0E2C16FF0E2D167F0E2E16C4
:101DA400000E2F162BA0D9EF0EF0DBEF0EF0DCEFB8
:101DB4000EF02E8ED8902B302F6E25502F122CC063
:101DC40019F02DC01AF02EC01BF02FC01CF0120009
:101DD400000E206E000E216E000E226E000E236E89
:101DE400000E1F6E3701E0B7FAEF0EF0FCEF0EF0B5
:101DF40082EF0FF020EE01F01D50D9261E50DA229A
:101E04006F0078FF0BF06F0078FF0CF06F0078FF25
:101E14000DF06F0078FF0EF0600077F0D9FF6000DE
:101E24007BF0DAFFDF500F6E200E106E000E116E85
:101E3400210E126E000E136E220E146E000E156E1D
:101E4400230E166E000E176EEFEC1EF0600083F08A
:101E5400E3F7600087F0E4F760008BF0E1F76000DF
:101E64008FF0E2F720EE05F01D50D9261E50DA223D
:101E7400DF503701E56F20EE06F01D50D9261E50C5
:101E8400DA22DF50E66F20EE07F01D50D9261E50EF
:101E9400DA22DF50E76F20EE08F01D50D9261E50DD
:101EA400DA22DF50E86F20EE09F01D50D9261E50CB
:101EB400DA22DF50E96F20EE0AF01D50D9261E50B9
:101EC400DA22DF50EA6F20EE0BF01D50D9261E50A7
:101ED400DA22DF50EB6F20EE0CF01D50D9261E5095
:101EE400DA22DF50EC6F20EE0DF01D50D9261E5083
:101EF400DA22DF50ED6FE087010E1F6E98EF10F0CD
:101F0400D0B787EF0FF089EF0FF00DEF10F020EE50
:101F140001F01D50D9261E50DA226F0078FF0BF015
:101F24006F0078FF0CF06F0078FF0DF06F0078FF02
:101F34000EF0600077F0D9FF60007BF0DAFFDF502D
:101F44000F6E200E106E000E116E210E126E000E1A
:101F5400136E220E146E000E156E230E166E000EF6
:101F6400176EEFEC1EF0600083F0D3F7600087F08B
:101F7400D4F760008BF0D1F760008FF0D2F720EE39
:101F840005F01D50D9261E50DA22DF503701D56FD7
:101F940020EE06F01D50D9261E50DA22DF50D66FEF
:101FA40020EE07F01D50D9261E50DA22DF50D76FDD
:101FB40020EE08F01D50D9261E50DA22DF50D86FCB
:101FC40020EE09F01D50D9261E50DA22DF50D96FB9
:101FD40020EE0AF01D50D9261E50DA22DF50DA6FA7
:101FE40020EE0BF01D50D9261E50DA22DF50DB6F95
:101FF40020EE0CF01D50D9261E50DA22DF50DC6F83
:1020040020EE0DF01D50D9261E50DA22DF50DD6F70
:10201400D0877EEF0FF0C0B712EF10F014EF10F07E
:1020240098EF10F020EE01F01D50D9261E50DA2250
:102034006F0078FF0BF06F0078FF0CF06F0078FFF3
:102044000DF06F0078FF0EF0600077F0D9FF6000AC
:102054007BF0DAFFDF500F6E200E106E000E116E53
:10206400210E126E000E136E220E146E000E156EEB
:10207400230E166E000E176EEFEC1EF0600083F058
:10208400C3F7600087F0C4F760008BF0C1F760000D
:102094008FF0C2F720EE05F01D50D9261E50DA222B
:1020A400DF503701C56F20EE06F01D50D9261E50B3
:1020B400DA22DF50C66F20EE07F01D50D9261E50DD
:1020C400DA22DF50C76F20EE08F01D50D9261E50CB
:1020D400DA22DF50C86F20EE09F01D50D9261E50B9
:1020E400DA22DF50C96F20EE0AF01D50D9261E50A7
:1020F400DA22DF50CA6F20EE0BF01D50D9261E5095
:10210400DA22DF50CB6F20EE0CF01D50D9261E5082
:10211400DA22DF50CC6F20EE0DF01D50D9261E5070
:10212400DA22DF50CD6FC0877EEF0FF01F50120010
:102134000001A651A711D8A4A2EF10F0A4EF10F04B
:10214400A6EF10F01BEF12F020EE5CF0A651D9269A
:10215400A751DA2210EE11F0A651E126A751E2228E
:102164006F0098FFACF06F0098FFADF06F0098FF20
:10217400AEF06F0098FFAFF05DEC3AF00001AC51A7
:102184000B5CB06FAD510C58B16FAE510D58B26FBE
:10219400AF510E58B36FDE50B05DDE50B159DE5012
:1021A400B259DE50B359D8A0DAEF10F0DCEF10F0DA
:1021B400E4EF11F0A6C025F0A7C026F0030E276EA9
:1021C4005BEC36F01BEF12F0A6C02EF0A7C02FF088
:1021D4009FEC1AF01BEF12F0A6C02EF0A7C02FF050
:1021E40041EC17F01BEF12F0A6C02EF0A7C02FF0A1
:1021F40096EC19F01BEF12F0A6C0A4F0A7C0A5F04E
:102204000EEC24F01BEF12F0A6C025F0A7C026F0B8
:1022140088EC34F00009D8B412EF11F014EF11F087
:102224001BEF12F0000120EE1AF0A651D926A75197
:10223400DA22000EDF6E20EE02F0A651D926A75155
:10224400DA2210EE1BF0A651E126A751E2226F001C
:102254007BFFE6FF6F007BFFE6FF6F007BFFE6FF7F
:102264006F007BFFE6FF20EE29F0A651D926A75187
:10227400DA22000EDE6E000EDD6E20EE10F0A651A6
:10228400D926A751DA22020EDF6E1BEF12F0A6C088
:1022940025F0A7C026F088EC34F00009D8B455EF37
:1022A40011F057EF11F01BEF12F0000120EE02F0D5
:1022B400A651D926A751DA2210EE1BF0A651E12629
:1022C400A751E2226F007BFFE6FF6F007BFFE6FF72
:1022D4006F007BFFE6FF6F007BFFE6FF20EE1FF041
:1022E400A651D926A751DA22000EDF6E20EE2FF078
:1022F400A651D926A751DA226F0078FF0BF06F00A0
:1023040074FF0CF0A4EC35F0000120EE20F0A6518F
:10231400D926A751DA2260002FF0DEFF600033F0E7
:10232400DEFF600037F0DEFF60003BF0DEFF5DECB7
:102334003AF0000120EE24F0A651D926A751DA2262
:1023440060002FF0DEFF600033F0DEFF600037F046
:10235400DEFF60003BF0DEFF20EE29F0A651D92617
:10236400A751DA22000EDE6E000EDD6E20EE28F09C
:10237400A651D926A751DA22000EDF6E20EE10F006
:10238400A651D926A751DA22030EDF6E1BEF12F0F5
:10239400A6C02EF0A7C02FF0F5EC21F01BEF12F031
:1023A400A6C01DF0A7C01EF08DEC2CF01BEF12F0A0
:1023B400A6C025F0A7C026F0040E276E5BEC36F00D
:1023C4001BEF12F020EE10F0A651D926A751DA2205
:1023D400DF50A86FA96BA951000AD8B4F4EF11F02B
:1023E400DAEF11F0A851000AD8B4DAEF11F0010ABB
:1023F400D8B4E6EF10F0030AD8B4EEEF10F0010AF7
:10240400D8B4F6EF10F0070AD8B4FEEF10F0010AC2
:10241400D8B4CAEF11F0030AD8B4D2EF11F0010A0C
:10242400D8B406EF11F00F0AD8B449EF11F0DAEF7F
:1024340011F01200000E206E80AE23EF12F025EF93
:1024440012F0CAEF12F082A62AEF12F02CEF12F06B
:1024540054EF12F060007BF0D9FF60007FF0DAFFE8
:10246400020EDF6E6F0010FE0BF06F0004FE0CF026
:102474006F0008FE0DF08350B0EC24F020EE01F064
:102484001E50D9261F50DA2260002FF0DEFF6000B4
:1024940033F0DEFF600037F0DEFF60003BF0DEFF6C
:1024A40074EF12F060007BF0D9FF60007FF0DAFF78
:1024B400010EDF6E6F0008FE0BF08150B9EC31F0B5
:1024C40020EE01F01E50D9261F50DA2260002FF0B2
:1024D400DEFF600033F0DEFF600037F0DEFF6000F7
:1024E4003BF0DEFF20EE05F01E50D9261F50DA2205
:1024F4006F0017FEDFFF20EE06F01E50D9261F5096
:10250400DA226F001BFEDFFF20EE07F01E50D926F3
:102514001F50DA226F001FFEDFFF20EE08F01E506E
:10252400D9261F50DA226F0023FEDFFF20EE09F0C8
:102534001E50D9261F50DA226F0027FEDFFF20EE3F
:102544000AF01E50D9261F50DA226F002BFEDFFF3F
:1025540020EE0BF01E50D9261F50DA226F002FFEFA
:10256400DFFF20EE0CF01E50D9261F50DA226F0038
:1025740033FEDFFF20EE0DF01E50D9261F50DA2265
:102584006F0037FEDFFF809E010E206E76EF13F0A2
:102594003701F0AFD0EF12F0D2EF12F076EF13F074
:1025A400F2A7D7EF12F0D9EF12F001EF13F06000A9
:1025B4007BF0D9FF60007FF0DAFF020EDF6E6D0062
:1025C400D0FF0BF06D00C4FF0CF06D00C8FF0DF0E0
:1025D400F351B0EC24F020EE01F01E50D9261F5028
:1025E400DA2260002FF0DEFF600033F0DEFF6000CF
:1025F40037F0DEFF60003BF0DEFF21EF13F06000F8
:102604007BF0D9FF60007FF0DAFF010EDF6E6D0012
:10261400C8FF0BF0F151B9EC31F020EE01F01E507F
:10262400D9261F50DA2260002FF0DEFF600033F05D
:10263400DEFF600037F0DEFF60003BF0DEFF20EEDF
:1026440005F01E50D9261F50DA226D00D7FFDFFF98
:1026540020EE06F01E50D9261F50DA226D00DBFF53
:10266400DFFF20EE07F01E50D9261F50DA226D003E
:10267400DFFFDFFF20EE08F01E50D9261F50DA22BC
:102684006D00E3FFDFFF20EE09F01E50D9261F5036
:10269400DA226D00E7FFDFFF20EE0AF01E50D92694
:1026A4001F50DA226D00EBFFDFFF20EE0BF01E500F
:1026B400D9261F50DA226D00EFFFDFFF20EE0CF069
:1026C4001E50D9261F50DA226D00F3FFDFFF20EEE3
:1026D4000DF01E50D9261F50DA226D00F7FFDFFFE0
:1026E4003701F09FC6EF12F020501200000E0001D7
:1026F400C36F400EB46F010EB56F6AEC0AF0010EA1
:10270400226E010E216EC50E236E000E246EC30EC2
:10271400256E000E266E7DEC26F00001C26FC251BC
:10272400D8B497EF13F099EF13F09BEF13F052EC3A
:102734003AF00001C351D8B4A2EF13F0A4EF13F0A0
:10274400C6EF14F09AEF14F0000E0B6E000E0C6E30
:10275400000E0D6E000E0E6EC7C00FF0C8C010F054
:10276400C9C011F0CAC012F08CEC27F0D8B0BDEF8C
:1027740013F0BFEF13F0CCEF13F0C7C093F0C8C051
:1027840094F0C9C095F0CAC096F0000E0001C46F61
:10279400BFEF14F0040E0001C46FBFEF14F0000E7D
:1027A4000B6E000E0C6E000E0D6E000E0E6EC7C08A
:1027B4000FF0C8C010F0C9C011F0CAC012F08CEC00
:1027C40027F0D8B0E8EF13F0EAEF13F0CCEF13F0F2
:1027D400C7C075F1C8C076F1C9C077F1CAC078F135
:1027E400C7EF13F0000E0B6E000E0C6E000E0D6E94
:1027F400000E0E6EC7C00FF0C8C010F0C9C011F0B3
:10280400CAC012F08CEC27F0D8B00BEF14F00DEF27
:1028140014F0CCEF13F0C7C00BF0C8C00CF0C9C063
:102824000DF0CAC00EF009EC27F00BC085F10CC006
:1028340086F1C7EF13F0000E0B6E000E0C6E000E47
:102844000D6E000E0E6EC7C00FF0C8C010F0C9C0E8
:1028540011F0CAC012F08CEC27F0D8B034EF14F0A9
:1028640036EF14F0CCEF13F0C7C00BF0C8C00CF077
:10287400C9C00DF0CAC00EF009EC27F00BC087F1F7
:102884000CC088F1C7EF13F0000E0B6E000E0C6E37
:10289400000E0D6E000E0E6EC7C00FF0C8C010F013
:1028A400C9C011F0CAC012F08CEC27F0D8B05DEFAB
:1028B40014F05FEF14F0CCEF13F0C7C07DF1C8C083
:1028C4007EF1C9C07FF1CAC080F1C7EF13F0400E9A
:1028D400156E010E166E9C0E176E000E186E8A0E83
:1028E400196E000E1A6E4DEC25F00009D8B47DEF78
:1028F40014F07FEF14F081EF14F0C7EF13F0030E20
:102904000001C46FBFEF14F0A20E346E000E356EDA
:10291400C5C036F0C7C037F0C8C038F0C9C039F0F8
:10292400CAC03AF0BBEC1FF00001C46FBFEF14F053
:10293400C551C06FC16BC151000AD8B4A4EF14F0E3
:1029440086EF14F0C051080AD8B4A6EF13F0010AB8
:10295400D8B4D1EF13F0030AD8B469EF14F0010A24
:10296400D8B4F4EF13F0070AD8B41DEF14F0010A39
:10297400D8B446EF14F086EF14F0C6C036F0C4C0E5
:1029840037F0C551F5EC31F0060E0001C06F300E82
:10299400E82EFED7C02FFCD700F012000F50101005
:1029A400D8B4D7EF14F0D9EF14F010EF16F060009C
:1029B4003FF0D9FF600043F0DAFFDE50DE10D8B4F8
:1029C400E6EF14F0E8EF14F010EF16F011501210C7
:1029D400D8A4EFEF14F0F1EF14F0F3EF14F010EFCC
:1029E40016F060003FF0D9FF600043F0DAFF6F009B
:1029F40078FF0BF06F0074FF0CF0C6EC38F0600049
:102A040047F0D9FF60004BF0DAFFDF6E60003FF063
:102A1400D9FF600043F0DAFF6F0078FF0BF06F001E
:102A240074FF0CF002EC39F0136E20EE01F011503B
:102A3400D9261250DA2260004FF0DFFF60003FF029
:102A4400D9FF600043F0DAFF6F0078FF0BF06F00EE
:102A540074FF0CF0DAEC38F0136E20EE02F0115033
:102A6400D9261250DA2260004FF0DFFF60003FF0F9
:102A7400D9FF600043F0DAFF6F0078FF0BF06F00BE
:102A840074FF0CF07EEC35F020EE03F01150D926E3
:102A94001250DA2260002FF0DEFF600033F0DEFF18
:102AA400600037F0DEFF60003BF0DEFF60003FF0C7
:102AB400D9FF600043F0DAFF6F0078FF0BF06F007E
:102AC40074FF0CF032EC35F020EE07F01150D926EB
:102AD4001250DA2260002FF0DEFF600033F0DEFFD8
:102AE400600037F0DEFF60003BF0DEFF60003FF087
:102AF400D9FF600043F0DAFF6F0078FF0BF06F003E
:102B040074FF0CF058EC35F020EE0BF01150D92680
:102B14001250DA2260002FF0DEFF600033F0DEFF97
:102B2400600037F0DEFF60003BF0DEFF60003FF046
:102B3400D9FF600043F0DAFF6F0078FF0BF06F00FD
:102B440074FF0CF0EEEC38F0136E20EE0FF0115021
:102B5400D9261250DA2260004FF0DFFF60003FF008
:102B6400D9FF600043F0DAFF6F0078FF0BF06F00CD
:102B740074FF0CF09EEC38F0136E20EE10F0115040
:102B8400D9261250DA2260004FF0DFFF60003FF0D8
:102B9400D9FF600043F0DAFF6F0078FF0BF06F009D
:102BA40074FF0CF03CEC31F0136E20EE11F0115078
:102BB400D9261250DA2260004FF0DFFF60003FF0A8
:102BC400D9FF600043F0DAFF6F0078FF0BF06F006D
:102BD40074FF0CF0B2EC38F0136E20EE12F01150CA
:102BE400D9261250DA2260004FF0DFFF60003FF078
:102BF400D9FF600043F0DAFF6F0078FF0BF06F003D
:102C040074FF0CF042EC37F0136E20EE13F0115009
:102C1400D9261250DA2260004FF0DFFF12000F5065
:102C24001010D8A418EF16F01AEF16F01DEF16F0D6
:102C3400050E40EF17F020EE0FF00F50D92610507C
:102C4400DA22DF50D8B429EF16F02BEF16F02EEF6E
:102C540016F0070E40EF17F020EE01F00F50D926C2
:102C64001050DA22DF50D8B43AEF16F03CEF16F0E9
:102C74003FEF16F0030E40EF17F060003FF0D9FF6E
:102C8400600043F0DAFFDE04D8B44BEF16F04DEFEA
:102C940016F05FEF16F060003FF0D9FF600043F0DC
:102CA400DAFF030EDE18D8B45AEF16F05CEF16F014
:102CB4005FEF16F0020E40EF17F020EE0EF00F500B
:102CC400D9261050DA22000EDF6E20EE02F00F50EB
:102CD400D9261050DA2210EE06F00F50E1261050DB
:102CE400E2226F007BFFE6FF6F007BFFE6FF6F00D1
:102CF4007BFFE6FF6F007BFFE6FF20EE0AF00F503C
:102D0400D9261050DA22000EDE6E000EDE6E000EA2
:102D1400DE6E000EDD6E20EE10F00F50D92610503E
:102D2400DA22010EDF6E20EE15F00F50D926105076
:102D3400DA22000EDF6E20EE1AF00F50D926105062
:102D4400DA22000EDF6E20EE16F00F50D926105056
:102D5400DA22000EDE6E000EDE6E000EDE6E000E57
:102D6400DD6E5DEC3AF020EE11F00F50D9261050D4
:102D7400DA2260002FF0DEFF600033F0DEFF600037
:102D840037F0DEFF60003BF0DEFF20EE02F00F5074
:102D9400D9261050DA2210EE1BF00F50E126105005
:102DA400E2226F007BFFE6FF6F007BFFE6FF6F0010
:102DB4007BFFE6FF6F007BFFE6FF20EE1FF00F5066
:102DC400D9261050DA22000EDF6E20EE2FF00F50BD
:102DD400D9261050DA226F0078FF0BF06F0074FFD1
:102DE4000CF0A4EC35F020EE20F00F50D926105052
:102DF400DA2260002FF0DEFF600033F0DEFF6000B7
:102E040037F0DEFF60003BF0DEFF5DEC3AF020EED1
:102E140024F00F50D9261050DA2260002FF0DEFF84
:102E2400600033F0DEFF600037F0DEFF60003BF04F
:102E3400DEFF20EE28F00F50D9261050DA22000EC3
:102E4400DF6E20EE29F00F50D9261050DA22000E42
:102E5400DE6E000EDD6E20EE2BF00F50D9261050E2
:102E6400DA22000EDE6E000EDD6E60003FF0D9FF48
:102E7400600043F0DAFF020EDF6E000E12002EC077
:102E840027F02FC028F020EE63F02E50D9262F50C3
:102E9400DA22DF50EDEC39F0296E20EE4BF02E50A3
:102EA400D9262F50DA226F0078FF2AF06F0074FFC2
:102EB4002BF0F9EC28F020EE02F02E50D9262F50FA
:102EC400DA226F0078FF1BF06F0078FF1CF06F00B0
:102ED40078FF1DF06F0078FF1EF020EE1BF02E50DF
:102EE400D9262F50DA226F0078FF1FF06F0078FF89
:102EF40020F06F0078FF21F06F0078FF22F07EEC65
:102F040036F01BC023F01CC024F01DC025F01EC0E9
:102F140026F013EC36F023C030F024C031F025C085
:102F240032F026C033F020EE3DF02E50D9262F503B
:102F3400DA226F0078FF0BF06F0078FF0CF06F005F
:102F440078FF0DF06F0078FF0EF030C00FF031C045
:102F540010F032C011F033C012F08CEC27F0D8B06E
:102F6400B6EF17F0B8EF17F0C0EF17F020EE1AF035
:102F74002E50D9262F50DA22010EDF6E30C00BF00E
:102F840031C00CF032C00DF033C00EF020EE4FF023
:102F94002E50D9262F50DA226F0078FF0FF06F00E1
:102FA40078FF10F06F0078FF11F06F0078FF12F0D7
:102FB4008CEC27F0D8A0E1EF17F0E3EF17F06FEFF8
:102FC40018F02EC021F02FC022F0E0EC34F020EEF7
:102FD4001AF02E50D9262F50DA22DF50D8A4F5EF5C
:102FE40017F0F7EF17F001EF18F02EC025F02FC0FF
:102FF40026F0060E276E5BEC36F06FEF18F020EE2D
:1030040002F02E50D9262F50DA2210EE1BF02E504B
:10301400E1262F50E2226F007BFFE6FF6F007BFF6B
:10302400E6FF6F007BFFE6FF6F007BFFE6FF20EE0D
:103034001FF02E50D9262F50DA22000EDF6E20EE1C
:103044002FF02E50D9262F50DA226F0078FF0BF084
:103054006F0074FF0CF0A4EC35F020EE20F02E503D
:10306400D9262F50DA2260002FF0DEFF600033F003
:10307400DEFF600037F0DEFF60003BF0DEFF5DEC5A
:103084003AF020EE24F02E50D9262F50DA22600098
:103094002FF0DEFF600033F0DEFF600037F0DEFF6C
:1030A40060003BF0DEFF20EE28F02E50D9262F5092
:1030B400DA22000EDF6E20EE29F02E50D9262F5092
:1030C400DA22000EDE6E000EDD6E20EE10F02E50C1
:1030D400D9262F50DA22030EDF6E1200215022105F
:1030E400D8B477EF18F079EF18F095EF19F0235072
:1030F4002410D8B480EF18F082EF18F095EF19F08F
:1031040025502610D8A489EF18F08BEF18F08DEF16
:1031140018F095EF19F0A40E0B6E000E0C6E8AECED
:103124001BF0600087F0D9FF60008BF0DAFF010E1E
:10313400DF6E20EE01F02150D9262250DA22000E53
:10314400DF6E20EE02F02150D9262250DA22000E42
:10315400DE6E000EDE6E000EDE6E000EDD6E20EE04
:1031640006F02150D9262250DA22000EDE6E000E1F
:10317400DE6E000EDE6E000EDD6E20EE0AF02150D3
:10318400D9262250DA22000EDE6E000EDE6E000E0C
:10319400DE6E000EDD6E20EE0EF02150D926225098
:1031A400DA22000EDF6E20EE0FF02150D9262250D5
:1031B400DA22000EDF6E20EE10F02150D9262250C4
:1031C400DA22000EDF6E20EE11F02150D9262250B3
:1031D400DA22DE6ADE6ADE6ADD6A20EE15F021504C
:1031E400D9262250DA22000EDF6E20EE16F021508E
:1031F400D9262250DA22000EDE6E000EDE6E000E9C
:10320400DE6E000EDD6E20EE1AF02150D92622501B
:10321400DA22000EDF6E20EE20F02150D926225053
:10322400DA22DE6ADE6ADE6ADD6A20EE24F02150EC
:10323400D9262250DA22DE6ADE6ADE6ADD6A20EEF0
:1032440028F02150D9262250DA22000EDF6E20EE1B
:1032540029F02150D9262250DA22000EDE6E000E0B
:10326400DD6E20EE2BF02150D9262250DA22000EFA
:10327400DE6E000EDD6E20EE1BF02150D9262250AA
:10328400DA22000EDE6E000EDE6E000EDE6E000E22
:10329400DD6E20EE1FF02150D9262250DA22000ED6
:1032A400DF6E20EE2DF02150D9262250DA22600064
:1032B4008FF0DEFF600093F0DDFF20EE2FF0215051
:1032C400D9262250DA22600097F0DEFF60009BF0DE
:1032D400DDFF20EEA4F010EE31F02150E126225063
:1032E400E222320E6F006FFFE3FFE806FBE220EEFE
:1032F4002DF02150D9262250DA226F0078FF1FF0DA
:103304006F0074FF20F004EC2BF020EE2FF021501E
:10331400D9262250DA226F0078FF0DF06F0074FF77
:103324000EF04DEC2FF012002EC027F02FC028F025
:1033340020EE63F02E50D9262F50DA22DF50296E6A
:1033440020EE49F02E50D9262F50DA226F0078FF54
:103354002AF06F0074FF2BF0F9EC28F02EC027F050
:103364002FC028F0E7EC2FF027C032F028C033F04C
:1033740029C034F02AC035F020EE3DF02E50D92675
:103384002F50DA226F0078FF0BF06F0078FF0CF0FB
:103394006F0078FF0DF06F0078FF0EF032C00FF071
:1033A40033C010F034C011F035C012F08CEC27F0AB
:1033B400D8B0DFEF19F0E1EF19F0F1EF19F020EEDA
:1033C4001FF02E50D9262F50DA22010EDF6E20EE88
:1033D40028F02E50D9262F50DA22010EDF6E20EE6F
:1033E40028F02E50D9262F50DA22DF50D8B4FDEF22
:1033F40019F0FFEF19F09EEF1AF02EC00FF02FC056
:1034040010F038EC21F00009D8B40BEF1AF00DEFEE
:103414001AF09EEF1AF020EE1FF02E50D9262F50EE
:10342400DA22DF50D8A419EF1AF01BEF1AF025EFB7
:103434001AF02EC025F02FC026F0060E276E5BEC86
:1034440036F09EEF1AF032C00BF033C00CF034C0EB
:103454000DF035C00EF020EE57F02E50D9262F5027
:10346400DA226F0078FF0FF06F0078FF10F06F0022
:1034740078FF11F06F0078FF12F08CEC27F0D8B0D1
:1034840046EF1AF048EF1AF04AEF1AF01BEF1AF061
:103494002EC021F02FC022F0E0EC34F020EE15F025
:1034A4002E50D9262F50DA22DF2A20EE5BF02E5040
:1034B400D9262F50DA2210EE15F02E50E1262F5087
:1034C400E222DE50E65CD8A06AEF1AF06CEF1AF044
:1034D40076EF1AF020EE10F02E50D9262F50DA2273
:1034E400040EDF6E9EEF1AF020EE1AF02E50D9264D
:1034F4002F50DA22000EDF6E20EE02F02E50D92675
:103504002F50DA2210EE1BF02E50E1262F50E2222B
:103514006F007BFFE6FF6F007BFFE6FF6F007BFF22
:10352400E6FF6F007BFFE6FF20EE10F02E50D92659
:103534002F50DA22020EDF6E12002EC027F02FC0A9
:1035440028F020EE63F02E50D9262F50DA22DF50D7
:10355400296E20EE49F02E50D9262F50DA226F0022
:1035640078FF2AF06F0074FF2BF0F9EC28F02EC0DE
:1035740027F02FC028F0E7EC2FF027C030F028C048
:1035840031F029C032F02AC033F020EE3DF02E5045
:10359400D9262F50DA226F0078FF0BF06F0078FFE6
:1035A4000CF06F0078FF0DF06F0078FF0EF030C064
:1035B4000FF031C010F032C011F033C012F08CECB7
:1035C40027F0D8B0E8EF1AF0EAEF1AF0FAEF1AF0A1
:1035D40020EE1FF02E50D9262F50DA22010EDF6E76
:1035E40020EE28F02E50D9262F50DA22010EDF6E5D
:1035F40020EE28F02E50D9262F50DA22DF50D8B4EE
:1036040006EF1BF008EF1BF089EF1BF02EC00FF044
:103614002FC010F038EC21F00009D8B414EF1BF0DF
:1036240016EF1BF089EF1BF020EE1FF02E50D92669
:103634002F50DA22DF50D8A422EF1BF024EF1BF026
:103644002EEF1BF02EC025F02FC026F0060E276E9D
:103654005BEC36F089EF1BF030C00BF031C00CF09E
:1036640032C00DF033C00EF020EE57F02E50D926A4
:103674002F50DA226F0078FF0FF06F0078FF10F000
:103684006F0078FF11F06F0078FF12F08CEC27F0D8
:10369400D8B04FEF1BF051EF1BF053EF1BF024EFAA
:1036A4001BF02EC021F02FC022F0E0EC34F020EE0D
:1036B40015F02E50D9262F50DA22000EDF6E20EEA0
:1036C4001AF02E50D9262F50DA22000EDF6E20EE8B
:1036D40002F02E50D9262F50DA2210EE1BF02E5075
:1036E400E1262F50E2226F007BFFE6FF6F007BFF95
:1036F400E6FF6F007BFFE6FF6F007BFFE6FF20EE37
:1037040010F02E50D9262F50DA22020EDF6E12004E
:103714000B500C10D8A491EF1BF093EF1BF095EF16
:103724001BF067EF1CF060002FF0D9FF600033F04E
:10373400DAFF000EDE6E000EDE6E000EDE6E000E90
:10374400DD6E20EE04F00B50D9260C50DA22000E68
:10375400DE6E000EDE6E0C0EDE6E430EDD6E20EEAF
:1037640008F00B50D9260C50DA22000EDE6E000E43
:10377400DE6EFA0EDE6E430EDD6E20EE0CF00B50A4
:10378400D9260C50DA229A0EDE6E990EDE6E990E50
:10379400DE6E3E0EDD6E20EE10F00B50D9260C507E
:1037A400DA22000EDE6E000EDE6EA00EDE6E400E1D
:1037B400DD6E20EE14F00B50D9260C50DA22E90EFF
:1037C400DE6E010EDD6E20EE16F00B50D9260C5085
:1037D400DA222C0EDE6E010EDD6E20EE18F00B5098
:1037E400D9260C50DA221E0EDE6E000EDD6E20EE9F
:1037F4001AF00B50D9260C50DA221E0EDE6E000E83
:10380400DD6E20EE1CF00B50D9260C50DA221E0E71
:10381400DE6E000EDD6E20EE1EF00B50D9260C502D
:10382400DA22000EDE6E000EDE6E800EDE6E3F0EBD
:10383400DD6E20EE22F00B50D9260C50DA22000E59
:10384400DE6E000EDE6E800EDE6E3F0EDD6E20EE4E
:1038540026F00B50D9260C50DA22000EDE6E000E34
:10386400DE6E000EDE6E3F0EDD6E20EE2AF00B5093
:10387400D9260C50DA22020EDF6E20EE2BF00B500C
:10388400D9260C50DA22100EDE6E270EDE6E000EE4
:10389400DE6E000EDD6E20EE2FF00B50D9260C509C
:1038A400DA221E0EDE6E000EDD6E20EE31F00B50BD
:1038B400D9260C50DA22000EDF6E20EE32F00B50C7
:1038C400D9260C50DA22010EDF6E120017501810A0
:1038D400D8A46FEF1CF071EF1CF074EF1CF0000E15
:1038E40044EF1DF060005FF0D9FF600063F0DAFF81
:1038F400FE0EDE1809E1CA0EDE18D8B484EF1CF0FF
:1039040086EF1CF088EF1CF071EF1CF020EE02F043
:103914001750D9261850DA22DE04D8B494EF1CF0DC
:1039240096EF1CF098EF1CF071EF1CF017C00BF031
:1039340018C00CF085EC33F020EE19F01750D9269E
:103944001850DA22DE500B1809E1DE500C18D8B4F6
:10395400AEEF1CF0B0EF1CF0B2EF1CF071EF1CF0F6
:10396400000E0B6E000E0C6E000E0D6E000E0E6E31
:1039740020EE03F01750D9261850DA226F0078FF92
:103984000FF06F0078FF10F06F0078FF11F06F00F8
:1039940078FF12F08CEC27F0D8A0D3EF1CF0D5EF11
:1039A4001CF0D7EF1CF071EF1CF0000E0B6E000E34
:1039B4000C6E000E0D6E000E0E6E20EE07F017500A
:1039C400D9261850DA226F0078FF0FF06F0078FFC5
:1039D40010F06F0078FF11F06F0078FF12F08CEC9C
:1039E40027F0D8A0F8EF1CF0FAEF1CF0FCEF1CF065
:1039F40071EF1CF020EE13F01750D9261850DA227C
:103A0400DE50DE10D8A409EF1DF00BEF1DF00DEF12
:103A14001DF071EF1CF020EE15F01750D926185048
:103A2400DA22DE50DE10D8A41AEF1DF01CEF1DF0D0
:103A34001EEF1DF071EF1CF0000E0B6E000E0C6EED
:103A4400000E0D6E000E0E6E20EE0FF01750D926EC
:103A54001850DA226F0078FF0FF06F0078FF10F033
:103A64006F0078FF11F06F0078FF12F08CEC27F0F4
:103A7400D8A03FEF1DF041EF1DF043EF1DF071EFB3
:103A84001CF0010E1200136E1350D8B44CEF1DF04D
:103A94004EEF1DF070EF1DF00EBE55EF1DF053EF0D
:103AA4001DF070EF1DF00BC00FF00CC010F00DC036
:103AB40011F00EC012F00F1E101E111E121E0F2A3E
:103AC400000E1022112212220FC015F010C016F0A1
:103AD40011C017F012C018F078EF1DF00BC015F0EC
:103AE4000CC016F00DC017F00EC018F00B500C10DF
:103AF4000D100E10D8A481EF1DF083EF1DF08DEF93
:103B04001DF0000E0B6E000E0C6E000E0D6E000EFE
:103B14000E6E1EEF1EF0960E146E97EF1DF0142A13
:103B2400D8901832173216321532000E15140F6E53
:103B3400000E1614106E000E1714116EFE0E1814DB
:103B4400126E0F50101011101210D8A4ACEF1DF00B
:103B5400AEEF1DF091EF1DF0BCEF1DF0142A010E25
:103B64001526000E162217221822D8901832173262
:103B740016321532000E15140F6E000E1614106E48
:103B8400000E1714116EFF0E1814126E0F50101041
:103B940011101210D8A4D1EF1DF0D3EF1DF0B0EF27
:103BA4001DF0DBEF1DF01406D890153616361736C7
:103BB400183617BEE0EF1DF0E2EF1DF0EAEF1DF03E
:103BC400020E1460E8EF1DF0EAEF1DF0D5EF1DF0D2
:103BD40014B0EFEF1DF0F1EF1DF0F2EF1DF0179EA2
:103BE400D890143214C00FF0106A116A126A0FC010
:103BF40012F0116A106A0F6A0F5015121050161243
:103C040011501712125018121350D8B40CEF1EF0A2
:103C14000EEF1EF016EF1EF00EBE15EF1EF013EFA2
:103C24001EF016EF1EF0188E15C00BF016C00CF027
:103C340017C00DF018C00EF0120025502610D8A49D
:103C440026EF1EF028EF1EF02BEF1EF0050EEEEF10
:103C54001EF025C021F026C022F0E0EC34F020EE66
:103C640001F02550D9262650DA22000EDF6E20EE10
:103C74000FF02550D9262650DA22000EDF6E20EEF2
:103C840010F02550D9262650DA22000EDF6E20EEE1
:103C940015F02550D9262650DA22000EDF6E20EECC
:103CA40016F02550D9262650DA22000EDE6E000EBC
:103CB400DE6E000EDE6E000EDD6E20EE1AF0255074
:103CC400D9262650DA22000EDF6E20EE02F02550AF
:103CD400D9262650DA2210EE06F02550E126265089
:103CE400E2226F007BFFE6FF6F007BFFE6FF6F00C1
:103CF4007BFFE6FF6F007BFFE6FF20EE0AF0255016
:103D0400D9262650DA22000EDE6E000EDE6E000E7C
:103D1400DE6E000EDD6E20EE0EF02550D926265004
:103D2400DA22000EDF6E600097F0D9FF60009BF08E
:103D3400DAFF010EDF6E20EE20F02550D926265042
:103D4400DA22DE6ADE6ADE6ADD6A20EE24F02550BD
:103D5400D9262650DA22DE6ADE6ADE6ADD6A20EEC1
:103D640028F02550D9262650DA22000EDF6E20EEE8
:103D740029F02550D9262650DA22000EDE6E000ED8
:103D8400DD6E20EE2BF02550D9262650DA22000EC7
:103D9400DE6E000EDD6E20EE02F02550D926265090
:103DA400DA2210EE1BF02550E1262650E2226F00A5
:103DB4007BFFE6FF6F007BFFE6FF6F007BFFE6FF04
:103DC4006F007BFFE6FF20EE1FF02550D92626501A
:103DD400DA22000EDF6E000E1200020E0F18D8A4B5
:103DE400F6EF1EF0F8EF1EF086EF1FF060004BF0C8
:103DF400D9FF60004FF0DAFF60002FF0DFFF0BC047
:103E040018F00CC019F00DC01AF00EC01BF019C048
:103E140018F01AC019F01BC01AF01B6A18C00BF076
:103E240019C00CF01AC00DF01BC00EF0600043F076
:103E3400D9FF600047F0DAFF60002FF0DFFF0BC00E
:103E440018F00CC019F00DC01AF00EC01BF019C008
:103E540018F01AC019F01BC01AF01B6A18C00BF036
:103E640019C00CF01AC00DF01BC00EF00B50030B60
:103E74001C6E0BC018F00CC019F00DC01AF00EC067
:103E84001BF0030ED890183619361A361B36E82E56
:103E940044EF1FF018C00BF019C00CF01AC00DF05D
:103EA4001BC00EF00B50E00B1C241C6E1C50080FA2
:103EB4001C6E1C50EB0B60005BF0D9FF60005FF0E0
:103EC400DAFFDF6E0BC018F00CC019F00DC01AF049
:103ED4000EC01BF019C018F01AC019F01BC01AF05C
:103EE4001B6A18C00BF019C00CF01AC00DF01BC0EF
:103EF4000EF0600053F0D9FF600057F0DAFF600065
:103F04002FF0DFFFBAEF1FF0600043F0D9FF60002D
:103F140047F0DAFF000EDF6E60004BF0D9FF60005F
:103F24004FF0DAFF000EDF6E0BC018F00CC019F072
:103F34000DC01AF00EC01BF0050ED89018361936B5
:103F44001A361B36E82E9FEF1FF018C00BF019C06D
:103F54000CF01AC00DF01BC00EF060005BF0D9FF2E
:103F640060005FF0DAFF60002FF0DFFF64EF1FF006
:103F7400120034503510D8B4C2EF1FF0C4EF1FF054
:103F8400D3EF1FF06000D3F0D9FF6000D7F0DAFF61
:103F9400DE50DE10D8A4D1EF1FF0D3EF1FF04CEFAA
:103FA40020F0050E79EF20F06000D3F0D9FF600017
:103FB400D7F0DAFF6F0078FF0FF06F0074FF10F096
:103FC40011EC16F079EF20F06000D3F0D9FF600017
:103FD400D7F0DAFF6F0078FF0BF06F0074FF0CF07E
:103FE400A5EC2DF079EF20F06000D3F0D9FF60004C
:103FF400D7F0DAFF6F0078FF25F06F0074FF26F02A
:10400400EFEC35F079EF20F06000D3F0D9FF6000D9
:10401400D7F0DAFF6F0078FF25F06F0074FF26F009
:104024001FEC1EF079EF20F06000D3F0D9FF6000A0
:10403400D7F0DAFF6F0078FF23F06F0074FF24F0ED
:1040440037C025F038C026F039C027F03AC028F030
:104054007AEC20F079EF20F06000D3F0D9FF600013
:10406400D7F0DAFF6F0078FF2AF06F0074FF2BF0AF
:1040740037C02CF038C02DF039C02EF03AC02FF0E4
:10408400FDEC30F079EF20F0000E79EF20F0040E13
:1040940079EF20F036503B6E3C6A3C50000AD8B4AD
:1040A40056EF20F049EF20F03B50000AD8B449EF16
:1040B40020F0010AD8B4D6EF1FF0030AD8B4E6EF13
:1040C4001FF0010AD8B4F6EF1FF0070AD8B406EFC0
:1040D40020F0010AD8B416EF20F0030AD8B42EEF6A
:1040E40020F0010AD8B446EF20F049EF20F0120086
:1040F40023502410D8A481EF20F083EF20F086EF22
:1041040020F0050E37EF21F020EE0FF02350D926D2
:104114002450DA22DF50D8B492EF20F094EF20F04C
:1041240097EF20F0070E37EF21F020EE01F0235037
:10413400D9262450DA22DF50D8B4A3EF20F0A5EF1B
:1041440020F0A8EF20F0030E37EF21F020EE0EF060
:104154002350D9262450DA22DF50D8A4B4EF20F01B
:10416400B6EF20F0B9EF20F0010E37EF21F0600038
:104174008FF0D9FF600093F0DAFF030EDE18D8B495
:10418400C6EF20F0C8EF20F0CBEF20F0020E37EF9F
:1041940021F023C017F024C018F025C019F026C060
:1041A4001AF027C01BF028C01CF0FEEC2DF000090B
:1041B400D8A4DFEF20F0E1EF20F0E4EF20F0060ECA
:1041C40037EF21F020EE06F02350D9262450DA22CE
:1041D400600097F0DEFF60009BF0DEFF60009FF060
:1041E400DEFF6000A3F0DEFF20EE06F02350D926A8
:1041F4002450DA226F0078FF1BF06F0078FF1CF068
:104204006F0078FF1DF06F0078FF1EF020EE02F0C3
:104214002350D9262450DA226F0078FF1FF06F0054
:1042240078FF20F06F0078FF21F06F0078FF22F014
:104234007EEC36F020EE0AF02350D9262450DA2200
:1042440060006FF0DEFF600073F0DEFF600077F067
:10425400DEFF60007BF0DEFF60008FF0D9FF6000BE
:1042640093F0DAFF040EDF6E000E12000F501010F0
:10427400D8B43FEF21F041EF21F050EF21F020EED0
:104284002FF00F50D9261050DA22DE50DE10D8A4B9
:104294004EEF21F050EF21F053EF21F0000EF4EF38
:1042A40021F020EE2FF00F50D9261050DA226F00A3
:1042B40078FF0BF06F0074FF0CF0A4EC35F00BC02A
:1042C40015F00CC016F00DC017F00EC018F020EE5B
:1042D40020F00F50D9261050DA226F0078FF11F029
:1042E4006F0078FF12F06F0078FF13F06F0078FF13
:1042F40014F01150155C196E125016581A6E1350A2
:1043040017581B6E145018581C6E1CBE8EEF21F0EB
:104314008CEF21F096EF21F01C1E1B1E1A1E196C47
:10432400000E1A221B221C221CBEA4EF21F01C50DA
:104334001B101A1009E1020E195CD8A0A4EF21F099
:10434400A6EF21F0D8EF21F020EE20F00F50D9266F
:104354001050DA22600057F0DEFF60005BF0DEFFF1
:1043640060005FF0DEFF600063F0DEFF5DEC3AF0BA
:1043740020EE24F00F50D9261050DA2260002FF0DE
:10438400DEFF600033F0DEFF600037F0DEFF600028
:104394003BF0DEFF20EE29F00F50D9261050DA2230
:1043A400000EDE6E000EDD6E50EF21F020EE29F0DF
:1043B4000F50D9261050DA22DE2A000EDD2220EE1C
:1043C40029F00F50D9261050DA22010EDB5009E1F2
:1043D400140EDE5CD8A0F1EF21F0F3EF21F050EFE2
:1043E40021F0010E120020EE3DF02E50D9262F5060
:1043F400DA226F0078FF0BF06F0078FF0CF06F008B
:1044040078FF0DF06F0078FF0EF020EE53F02E5081
:10441400D9262F50DA226F0078FF0FF06F0078FF53
:1044240010F06F0078FF11F06F0078FF12F08CEC41
:1044340027F0D8A020EF22F022EF22F02CEF22F078
:1044440020EE10F02E50D9262F50DA22060EDF6E01
:10445400B1EF22F02EC027F02FC028F020EE63F039
:104464002E50D9262F50DA22DF50EDEC39F0296E88
:1044740020EE4DF02E50D9262F50DA226F0078FF0F
:104484002AF06F0074FF2BF0F9EC28F020EE02F014
:104494002E50D9262F50DA226F0078FF1BF06F00C0
:1044A40078FF1CF06F0078FF1DF06F0078FF1EF09E
:1044B40020EE1BF02E50D9262F50DA226F0078FF01
:1044C4001FF06F0078FF20F06F0078FF21F06F007D
:1044D40078FF22F07EEC36F01BC023F01CC024F0E1
:1044E4001DC025F01EC026F013EC36F023C030F0BA
:1044F40024C031F025C032F026C033F030C00BF0B8
:1045040031C00CF032C00DF033C00EF020EE53F089
:104514002E50D9262F50DA226F0078FF0FF06F004B
:1045240078FF10F06F0078FF11F06F0078FF12F041
:104534008CEC27F0D8A0A1EF22F0A3EF22F0B1EF8A
:1045440022F02EC021F02FC022F0E0EC34F020EE57
:1045540010F02E50D9262F50DA22060EDF6E1200EC
:104564000001A451A511D8B4BAEF22F0BCEF22F097
:1045740069EF23F020EE2FF0A451D926A551DA22B9
:10458400DE50DE10D8A4C9EF22F0CBEF22F0CDEF3D
:1045940022F069EF23F020EE2FF0A451D926A55183
:1045A400DA226F0078FF46F06F0074FF47F0E9EC01
:1045B40025F00009D8B4E1EF22F0E3EF22F0EDEFAB
:1045C40022F0A4C025F0A5C026F0010E276E5BECF6
:1045D40036F069EF23F0000120EE2FF0A451D92624
:1045E400A551DA226F0078FF0BF06F0074FF0CF016
:1045F40016EC39F00009D8A402EF23F004EF23F0FD
:104604000EEF23F0A4C025F0A5C026F0020E276EFD
:104614005BEC36F069EF23F0000120EE2FF0A4519B
:10462400D926A551DA226F0078FF19F06F0074FFC4
:104634001AF07BEC31F0000120EE02F0A451D926EF
:10464400A551DA22600067F0DEFF60006BF0DEFF48
:1046540060006FF0DEFF600073F0DEFF20EE06F016
:10466400A451D926A551DA226F0078FF1BF06F0000
:1046740078FF1CF06F0078FF1DF06F0078FF1EF0CC
:1046840020EE02F0A451D926A551DA226F0078FF5A
:104694001FF06F0078FF20F06F0078FF21F06F00AB
:1046A40078FF22F07EEC36F0000120EE0AF0A451EF
:1046B400D926A551DA2260006FF0DEFF600073F0A6
:1046C400DEFF600077F0DEFF60007BF0DEFF1200AB
:1046D4001B501C10D8B471EF23F073EF23F085EF57
:1046E40023F01D501E10D8B47AEF23F07CEF23F092
:1046F40085EF23F01F502010D8A483EF23F085EF1B
:1047040023F088EF23F0000E0DEF24F0000E0E6E60
:10471400000E0D6E210E0F6E000E106E1B0E116E2C
:1047240009EC35F0210E176E000E186E68EC1CF0C3
:104734000009D8A4A0EF23F0A2EF23F0A4EF23F004
:1047440085EF23F020EE24F010EE09F01F50E1264F
:104754002050E2226F007BFFE6FF6F007BFFE6FF45
:104764006F007BFFE6FF6F007BFFE6FF20EE28F083
:1047740010EE35F01B50E1261C50E2226F007BFF47
:10478400E6FF6F007BFFE6FF6F007BFFE6FF6F0035
:104794007BFFE6FF20EE2CF010EE41F01B50E126EB
:1047A4001C50E2226F007BFFE6FF6F007BFFE6FFF9
:1047B4006F007BFFE6FF6F007BFFE6FF20EE30F02B
:1047C40010EE3DF01B50E1261C50E2226F007BFFEF
:1047D400E6FF6F007BFFE6FF6F007BFFE6FF6F00E5
:1047E4007BFFE6FF20EE45F01B50D9261C50DA2251
:1047F4006000D3F0DEFF6000D7F0DDFF20EE47F06D
:104804001B50D9261C50DA226000DBF0DEFF60006A
:10481400DFF0DDFF010E1200000120EE2FF0A451A5
:10482400D926A551DA226F0078FF46F06F0074FF95
:1048340047F09EEC2AF0000120EE02F0A451D926A4
:10484400A551DA22000EDE6E000EDE6E000EDE6E64
:10485400000EDD6E20EE02F0A451D926A551DA2215
:1048640010EE1BF0A451E126A551E2226F007BFF5C
:10487400E6FF6F007BFFE6FF6F007BFFE6FF6F0044
:104884007BFFE6FF20EE53F0A451D926A551DA228E
:1048940010EE06F0A451E126A551E2226F007BFF41
:1048A400E6FF6F007BFFE6FF6F007BFFE6FF6F0014
:1048B4007BFFE6FF20EE06F0A451D926A551DA22AB
:1048C4006F0078FF1BF06F0078FF1CF06F0078FF1B
:1048D4001DF06F0078FF1EF020EE02F0A451D926DF
:1048E400A551DA226F0078FF1FF06F0078FF20F0E7
:1048F4006F0078FF21F06F0078FF22F07EEC36F035
:10490400000120EE0AF0A451D926A551DA22600054
:104914006FF0DEFF600073F0DEFF600077F0DEFF13
:1049240060007BF0DEFF20EE29F0A451D926A551CA
:10493400DA22000EDE6E000EDD6E20EE28F0A451A9
:10494400D926A551DA22000EDF6E20EE10F0A45114
:10495400D926A551DA22050EDF6E1200136E000E61
:104964001A6E000E1B6E000E1C6E000E1D6E0D5096
:10497400030B186E0D38E842070B196E0C500F6EBE
:10498400106AD8900F361036D8900F361036D8905B
:104994000F3610360FC01AF010C01BF0000E1BBEED
:1049A400FF0E1C6E1D6E19501A241A6E000E1B2069
:1049B4001B6E000E1C201C6E000E1D201D6E1AC0E6
:1049C4000FF01BC010F01CC011F01DC012F0020E3D
:1049D400D8900F36103611361236E82EEAEF24F04E
:1049E4000FC01AF010C01BF011C01CF012C01DF053
:1049F40018501A241A6E000E1B201B6E000E1C2069
:104A04001C6E000E1D201D6E1AC010F01BC011F08C
:104A14001CC012F00F6A0FC01AF010C01BF011C0B6
:104A24001CF012C01DF013501A241A6E000E1B2025
:104A34001B6E000E1C201C6E000E1D201D6E1AC065
:104A440010F01BC011F01CC012F00F6A0FC01AF056
:104A540010C01BF011C01CF012C01DF00B501A2422
:104A64001A6E000E1B201B6E000E1C201C6E000E06
:104A74001D201D6E1AC014F01BC015F01CC016F0CA
:104A84001DC017F014C00BF015C00CF016C00DF0CB
:104A940017C00EF0120015501610D8B454EF25F0BC
:104AA40056EF25F068EF25F017501810D8B45DEFD5
:104AB40025F05FEF25F068EF25F019501A10D8A4FF
:104AC40066EF25F068EF25F06BEF25F0000EE8EFB8
:104AD40025F0CA0E1C6EFE0E1B6E010E1D6E20EE1E
:104AE40009F01950D9261A50DA226F0078FF1EF007
:104AF4006F0078FF1FF06F0078FF20F06F0078FFE1
:104B040021F020EE35F01550D9261650DA226F0028
:104B140078FF22F06F0078FF23F06F0078FF24F015
:104B24006F0078FF25F020EE41F01550D92616507D
:104B3400DA226F0078FF26F06F0078FF27F06F000D
:104B440078FF28F06F0078FF29F020EE3DF0155033
:104B5400D9261650DA226F0078FF2AF06F0078FF0A
:104B64002BF06F0078FF2CF06F0078FF2DF020EE13
:104B740045F01550D9261650DA226F0078FF2EF032
:104B84006F0074FF2FF020EE47F01550D926165011
:104B9400DA226F0078FF30F06F0074FF31F01B0EE3
:104BA4000B6E000E0C6E85EC33F00BC034F00CC0B1
:104BB40035F0000E106E000E0F6E1B0E116E000EFF
:104BC400126E1B0E136EB6EC34F0010E120046503A
:104BD4004710D8A4F0EF25F0F2EF25F0F5EF25F01B
:104BE400030E7CEF26F060001BF1D9FF60001FF17B
:104BF400DAFFDF50D8A401EF26F003EF26F00EEF22
:104C040026F020EE0DF04650D9264750DA22000E49
:104C1400DF6E020E7CEF26F046C017F047C018F096
:104C240056EC34F00009D8A41AEF26F01CEF26F055
:104C34002FEF26F020EE0DF04650D9264750DA2209
:104C4400000EDF6E60001BF1D9FF60001FF1DAFF78
:104C5400020EDF6E040E7CEF26F046C00FF047C054
:104C640010F0480E116E000E126EE4EC36F00009DE
:104C7400D8A43FEF26F041EF26F053EF26F020EEC4
:104C84000DF04650D9264750DA22000EDF6E600040
:104C94001BF1D9FF60001FF1DAFF020EDF6E2CEF6B
:104CA40026F020EE01F04650D9264750DA22600063
:104CB40023F1DEFF600027F1DEFF60002BF1DEFF51
:104CC40060002FF1DEFF46C038F047C039F068ECD1
:104CD40029F020EE0DF04650D9264750DA22010E75
:104CE400DF6E60001BF1D9FF60001FF1DAFF010ED7
:104CF400DF6E000E120023502410D8B484EF26F087
:104D040086EF26F08FEF26F025502610D8A48DEFDD
:104D140026F08FEF26F092EF26F0010E08EF27F031
:104D2400600097F0D9FF60009BF0DAFF000EDF6EA1
:104D34002B0E1E6E000E1F6E1CEC12F00009D8A480
:104D4400A6EF26F0A8EF26F0ABEF26F0000E08EF52
:104D540027F02150276E2250286E296A2A6A2C5087
:104D640027180FE12D5028180CE12E50291809E1BD
:104D74002F502A18D8B4C1EF26F0C3EF26F0C5EFA0
:104D840026F0A8EF26F0080E3018D8B4CCEF26F0A1
:104D9400CEEF26F0D1EF26F0020E08EF27F06000E8
:104DA4008FF0D9FF600093F0DAFF6000C7F0DFFFF7
:104DB40020EE01F02350D9262450DA226000CBF0F3
:104DC400DFFF34C00BF035C00CF036C00DF03350AB
:104DD40088EC39F020EE02F02350D9262450DA2250
:104DE40060002FF0DEFF600033F0DEFF600037F07C
:104DF400DEFF60003BF0DEFF600097F0D9FF60004B
:104E04009BF0DAFF010EDF6EA8EF26F012000D34DE
:104E14000E34146E1450D8A412EF27F014EF27F0B8
:104E24001EEF27F0000E0B6E000E0C6E000E0D6EC2
:104E3400000E0E6E8BEF27F00BC00FF00CC010F0BD
:104E44000DC011F00EC012F0200E2EEF27F0D890F6
:104E54001232113210320F32E82E29EF27F00F50A0
:104E6400136E0D8EFF0E0B16FF0E0C16FF0E0D1695
:104E7400000E0E16960E145E14BE45EF27F043EF97
:104E840027F05BEF27F01450800A970FD8B04DEF4E
:104E940027F04FEF27F051EF27F014EF27F0D890C9
:104EA4000E320D320C320B32143E51EF27F073EFF9
:104EB40027F01F0E146461EF27F063EF27F06BEF08
:104EC40027F014EF27F0D8900B360C360D360E363B
:104ED40014061450D8A471EF27F073EF27F065EF90
:104EE40027F01350D8B479EF27F07BEF27F083EF46
:104EF40027F00E1E0D1E0C1E0B6C000E0C220D2234
:104F04000E220BC00BF00CC00CF00DC00DF00EC047
:104F14000EF01200000E0B14136E000E0C14146E1F
:104F2400800E0D14156E7F0E0E14166E1350141091
:104F340015101610D8A4A1EF27F0A3EF27F0ABEFBC
:104F440027F0000E0B6E000E0C6E000E0D6E000EA0
:104F54000E6E000E0F14136E000E1014146E800EDD
:104F64001114156E7F0E1214166E135014101510B2
:104F74001610D8A4C0EF27F0C2EF27F0CAEF27F02D
:104F8400000E0F6E000E106E000E116E000E126EEB
:104F94000EAECFEF27F0D1EF27F0DAEF27F00B6C4E
:104FA4000C1ED8B00C2A0D1ED8B00D2A800E0E5639
:104FB40012AEDFEF27F0E1EF27F0EAEF27F00F6CF6
:104FC400101ED8B0102A111ED8B0112A800E125605
:104FD400000E0B1A000E0C1A000E0D1A800E0E1A7B
:104FE400000E0F1A000E101A000E111A800E121A5B
:104FF4000F500B5C10500C5811500D5812500E5895
:10500400D8B007EF28F009EF28F00CEF28F0D8907B
:105014000DEF28F0D88012001F502010D8A415EFEF
:1050240028F017EF28F019EF28F088EF28F021C0B6
:105034000BF022C00CF0EEEC33F00BC025F00CC0EA
:1050440026F020EE02F01F50D9262050DA222550F7
:10505400DE1807E12650DE18D8A433EF28F035EF28
:1050640028F037EF28F088EF28F020EE02F01F50E8
:10507400D9262050DA22600097F0DEFF60009BF012
:10508400DDFF20EE05F01F50D9262050DA22DF5034
:10509400D8B44FEF28F051EF28F088EF28F020EE35
:1050A40002F01F50D9262050DA22DE50DE10D8A498
:1050B4005EEF28F060EF28F078EF28F0000E196E0C
:1050C400000E186E000E1A6E67EC2BF020EE05F041
:1050D4001F50D9262050DA22000EDF6E1FC00BF0BD
:1050E40020C00CF033EC30F088EF28F020EE02F012
:1050F4001F50D9262050DA226F0078FF18F06F0075
:1051040074FF19F0010E1A6E67EC2BF01200080EF2
:105114000B6E6E0E0C6EF4EC3AF0740E0B6E610EA8
:105124000C6EF9EC3AF0D28EBA98BA9A400E216E0F
:10513400010E226E9C0E236E000E246E8A0E256EC6
:10514400000E266E70EC18F0400E1B6E010E1C6EE5
:105154009C0E1D6E000E1E6E8A0E1F6E000E206EBB
:105164006AEC23F00009D8A4BAEF28F0BCEF28F0C9
:10517400CAEF28F0400E156E010E166E9C0E176EC7
:10518400000E186E8A0E196E000E1A6E4DEC25F084
:10519400010E01014E6F030E406F8A0E466E000E23
:1051A400476E9EEC2AF0000E0101426F000E436F21
:1051B400000E446F000E456F000E466F000E476FE1
:1051C400000E486F000E496F000E4A6F000E4B6FC1
:1051D400000E4C6F000E4D6FA20E0B6E000E0C6E87
:1051E400400E0D6E010E0E6EC3EC36F01200275009
:1051F4002810D8B400EF29F002EF29F067EF29F066
:1052040020EE2DF02750D9262850DA22DE50DE1069
:10521400D8A40FEF29F011EF29F013EF29F067EF6D
:1052240029F020EE2DF02750D9262850DA226F00DD
:1052340078FF10F06F0074FF11F04EEC33F020EEA5
:105244002DF02750D9262850DA226F0078FF0CF071
:105254006F0074FF0DF029C00EF0DEEC32F020EE8A
:105264002DF02750D9262850DA226F0078FF1FF03E
:105274006F0074FF20F02AC021F02BC022F00EEC46
:1052840028F020EE2DF02750D9262850DA226F007E
:1052940078FF0BF06F0074FF0CF02AEC39F0000972
:1052A400D8A457EF29F059EF29F067EF29F020EE41
:1052B4002DF02750D9262850DA226F0078FF1FF0EE
:1052C4006F0074FF20F038EC2AF0120038503910C7
:1052D400D8B46FEF29F071EF29F0D1EF29F038C07D
:1052E40017F039C018F056EC34F00009D8A47DEF5B
:1052F40029F07FEF29F081EF29F0D1EF29F020EE9A
:1053040005F03850D9263950DA226F0078FF3AF088
:105314006F0078FF3BF06F0078FF3CF06F0078FF80
:105324003DF020EE01F03850D9263950DA226F00D2
:1053340078FF3EF06F0078FF3FF06F0078FF40F099
:105344006F0078FF41F03A503E5C426E3B503F584C
:10535400436E3C504058446E3D504158456E38C0F1
:1053640032F039C033F042C034F043C035F044C0A9
:1053740036F045C037F0FCEC2EF020EE0EF038503D
:10538400D9263950DA226000CBF0DEFF6000CFF07E
:10539400DEFF6000D3F0DEFF6000D7F0DEFF120016
:1053A400800E8F6E8E50E00B800AD8A4DCEF29F0BB
:1053B400DEEF29F0D4EF29F0000E916E000E3701D4
:1053C400006F000EBA6F000EBB6F000EB86F000EB8
:1053D400B96F000EBE6F000EBF6F000EBC6F000EE3
:1053E400BD6F000EA26F000EA36F000EA06F000E23
:1053F400A16F000EA66F000EA76F000EA46F000E23
:10540400A56F000EAA6F000EAB6F000EA86F000E02
:10541400A96F000EAE6F000EAF6F000EAC6F000EE2
:10542400AD6F000EB26F000EB36F000EB06F000EC2
:10543400B16F000EB66F000EB76F000EB46F000EA2
:10544400B56F000E036F980E046F810E056F000E8A
:105454008F6E6F0038FE0BF0E00E0B16D8A435EFFC
:105464002AF037EF2AF02BEF2AF012001F502010F9
:10547400D8A43FEF2AF041EF2AF043EF2AF09DEF42
:105484002AF020EE04F01F50D9262050DA22DF50F3
:10549400D8A44FEF2AF051EF2AF053EF2AF09DEFF2
:1054A4002AF020EE02F01F50D9262050DA22DE50D6
:1054B400DE10D8A460EF2AF062EF2AF064EF2AF03D
:1054C4009DEF2AF020EE05F01F50D9262050DA2255
:1054D400DF50D8B470EF2AF072EF2AF07AEF2AF096
:1054E4001FC00BF020C00CF033EC30F09DEF2AF01D
:1054F40020EE01F01F50D9262050DA22DF5003ECB1
:105504003BF020EE02F01F50D9262050DA226F0023
:1055140078FF18F06F0074FF19F0010E1A6E67EC33
:105524002BF020EE05F01F50D9262050DA22010E70
:10553400DF6E72EF2AF0120046504710D8A4A5EF90
:105544002AF0A7EF2AF0A9EF2AF003EF2BF020EEC0
:1055540001F04650D9264750DA2210EE05F04650A5
:10556400E1264750E2226F007BFFE6FF6F007BFFDE
:10557400E6FF6F007BFFE6FF6F007BFFE6FF46C0A0
:1055840038F047C039F068EC29F046C00FF047C046
:1055940010F0480E116E000E126EE4EC36F00009A5
:1055A400D8B4D7EF2AF0D9EF2AF003EF2BF020EE8E
:1055B40001F04650D9264750DA22600023F1DEFF7D
:1055C400600027F1DEFF60002BF1DEFF60002FF1A9
:1055D400DEFF20EE05F04650D9264750DA2260005F
:1055E40023F1DEFF600027F1DEFF60002BF1DEFF18
:1055F40060002FF1DEFF46C038F047C039F068EC98
:1056040029F012001F502010D8A40BEF2BF00DEF3F
:105614002BF00FEF2BF066EF2BF060007FF0D9FF3B
:10562400600083F0DAFF000EDF6E20EE01F01F5001
:10563400D9262050DA22000EDF6E20EE02F01F5031
:10564400D9262050DA22000EDE6E000EDD6E20EE2A
:1056540004F01F50D9262050DA22000EDF6E20EE0F
:1056640005F01F50D9262050DA22000EDF6E000EFE
:105674004E6E000E0001EB6F010EEA6F000E856F97
:10568400000E846F000E4D6E000E4C6E010E546EB3
:10569400ABEC39F0000EFBEC39F020EE01F01F50BA
:1056A400D9262050DA22DF5003EC3BF0000E196EAD
:1056B400000E186E000E1A6E67EC2BF01FC00BF074
:1056C40020C00CF033EC30F012001A50D8B46DEF57
:1056D4002BF06FEF2BF078EF2BF018501910D8A4A3
:1056E40076EF2BF078EF2BF07EEF2BF0000E4E6E62
:1056F400ABEC39F0C8EF2BF0E90E0B6E010E0C6E1B
:10570400000E0D6E000E0E6E18C00FF019C010F0D2
:10571400116A126AAAEC2EF00BC01BF00CC01CF02C
:105724000DC01DF00EC01EF01B501C101D101E10CD
:10573400D8A49FEF2BF0A1EF2BF0A9EF2BF0010ED3
:105744001B6E000E1C6E000E1D6E000E1E6E1E5093
:1057540008E11D04D8A0B1EF2BF0B3EF2BF0BBEFA1
:105764002BF0FF0E1B6EFF0E1C6E000E1D6E000E46
:105774001E6E1BC0EAF01CC0EBF0000E0001856F2A
:10578400000E846F010E4E6E9AEC39F01200116E09
:10579400FCEF2BF0A2EC3AF092EC3AF02AEF2CF06A
:1057A400A2EC3AF066EC3AF02AEF2CF0A2EC3AF0D4
:1057B4008AEC3AF02AEF2CF06FEC3AF08AEC3AF0EB
:1057C4002AEF2CF09AEC3AF08AEC3AF02AEF2CF01B
:1057D4009AEC3AF066EC3AF02AEF2CF09AEC3AF0B4
:1057E40092EC3AF02AEF2CF06FEC3AF092EC3AF0AB
:1057F4002AEF2CF01150070B0F6E106A1050000A9C
:10580400D8B407EF2CF0F6EF2BF00F50000AD8B401
:10581400CCEF2BF0010AD8B4D2EF2BF0030AD8B4A2
:10582400D8EF2BF0010AD8B4DEEF2BF0070AD8B476
:10583400E4EF2BF0010AD8B4EAEF2BF0030AD8B452
:10584400F0EF2BF0010AD8B4F6EF2BF0F6EF2BF0C3
:105854001200076E5EEF2CF0C2EC3AF0B2EC3AF0B4
:105864008CEF2CF0C2EC3AF078EC3AF08CEF2CF0A0
:10587400C2EC3AF0AAEC3AF08CEF2CF081EC3AF05E
:10588400AAEC3AF08CEF2CF0BAEC3AF0AAEC3AF02D
:105894008CEF2CF0BAEC3AF078EC3AF08CEF2CF078
:1058A400BAEC3AF0B2EC3AF08CEF2CF081EC3AF02E
:1058B400B2EC3AF08CEF2CF00750070B056E066A39
:1058C4000650000AD8B469EF2CF058EF2CF00550BC
:1058D400000AD8B42EEF2CF0010AD8B434EF2CF01F
:1058E400030AD8B43AEF2CF0010AD8B440EF2CF0F4
:1058F400070AD8B446EF2CF0010AD8B44CEF2CF0C8
:10590400030AD8B452EF2CF0010AD8B458EF2CF0A3
:1059140058EF2CF0120020EE2FF01D50D9261E5007
:10592400DA226F0078FF19F06F0074FF1AF07BEC35
:1059340031F020EE02F01D50D9261E50DA2260000C
:1059440067F0DEFF60006BF0DEFF60006FF0DEFFEB
:10595400600073F0DEFF20EE02F01D50D9261E50C9
:10596400DA2210EE06F01D50E1261E50E2226F00EE
:105974007BFFE6FF6F007BFFE6FF6F007BFFE6FF28
:105984006F007BFFE6FF20EE0AF01D50D9261E5063
:10599400DA22000EDE6E000EDE6E000EDE6E000EEB
:1059A400DD6E20EE0EF01D50D9261E50DA22010EB7
:1059B400DF6E20EE10F01D50D9261E50DA22000EA4
:1059C400DF6E600077F0D9FF60007BF0DAFF030E32
:1059D400DF6E120026502710D8A4F3EF2CF0F5EF59
:1059E4002CF0F8EF2CF0010E48EF2DF024C029F034
:1059F40025C02AF02B6A2C6A010E286E080E2D6E23
:105A040060009BF0D9FF60009FF0DAFFDF502E6E3C
:105A140020EE01F02650D9262750DA22DF502F6ECF
:105A240020EE02F02650D9262750DA22DF50306EBD
:105A340020EE03F02650D9262750DA22DF50316EAB
:105A440020EE04F02650D9262750DA22DF50326E99
:105A540020EE05F02650D9262750DA22DF50336E87
:105A6400000E346E000E356E280E1D6E000E1E6E76
:105A7400EAEC0EF00009D8A442EF2DF044EF2DF02B
:105A840047EF2DF0040E48EF2DF0000E12006F00CA
:105A9400E8FF09F06F00ECFF0AF0390190AF55EF11
:105AA4002DF057EF2DF060EF2DF0A0AF5CEF2DF04F
:105AB4005EEF2DF060EF2DF023EC37F0390194A563
:105AC40066EF2DF068EF2DF071EF2DF0A4A56DEFCA
:105AD4002DF06FEF2DF071EF2DF02EEC38F0390131
:105AE40093AF77EF2DF079EF2DF082EF2DF0A3AF88
:105AF4007EEF2DF080EF2DF082EF2DF0FEEC3AF0EA
:105B0400390193A988EF2DF08AEF2DF09EEF2DF047
:105B1400A3A98FEF2DF091EF2DF09EEF2DF002D879
:105B24009EEF2DF00500FA6E0001DF51FD6EE0518D
:105B3400FE6EFF6AFA50120060002BF0FBFF60005B
:105B440027F0FAFF11000B500C10D8A4ACEF2DF085
:105B5400AEEF2DF0B1EF2DF0050EFDEF2DF020EEA0
:105B64000FF00B50D9260C50DA22DF50D8B4BDEF19
:105B74002DF0BFEF2DF0C2EF2DF0070EFDEF2DF04D
:105B840020EE01F00B50D9260C50DA22DF50D8B4A5
:105B9400CEEF2DF0D0EF2DF0D3EF2DF0030EFDEF6F
:105BA4002DF060002FF0D9FF600033F0DAFF040E0F
:105BB400DE18D8B4E0EF2DF0E2EF2DF0F1EF2DF088
:105BC40060002FF0D9FF600033F0DAFF020EDE1818
:105BD400D8A4EFEF2DF0F1EF2DF0FCEF2DF06000E5
:105BE4002FF0D9FF600033F0DAFF050EDF6E000EF0
:105BF400FDEF2DF0040E120017501810D8A405EF75
:105C04002EF007EF2EF00AEF2EF0000E55EF2EF0D7
:105C140019C00BF01AC00CF01BC00DF01CC00EF024
:105C240020EE31F01750D9261850DA226F0078FF91
:105C34000FF06F0078FF10F06F0078FF11F06F0025
:105C440078FF12F08CEC27F0D8B02BEF2EF02DEF6C
:105C54002EF02FEF2EF007EF2EF020EE35F0175038
:105C6400D9261850DA226F0078FF0BF06F0078FF06
:105C74000CF06F0078FF0DF06F0078FF0EF019C084
:105C84000FF01AC010F01BC011F01CC012F08CEC05
:105C940027F0D8B050EF2EF052EF2EF054EF2EF044
:105CA40007EF2EF0010E1200000EBA6E000EBB6E4E
:105CB400000EBC6E000EC26E270EC36E440EC46E80
:105CC400020E3A01606F300E506F000E406F000EEE
:105CD400816F000E516F000E416F000E616F000E58
:105CE400426F000E526F000E626F4369536963691D
:105CF400446954696469080E846F579157935795A2
:105D04005681568356955581558355851A0E0B6ECB
:105D1400760E0C6EF9EC3AF0180E0B6E760E0C6ED5
:105D2400EFEC3AF0160E0B6E760E0C6EEAEC3AF0CF
:105D34003901908F0D0E3A01106F330E136F0E0E52
:105D4400116F120EED6F160EE76F130E176F120020
:105D5400000E136E000E146E000E156E000E166EFD
:105D64000F50101011101210D8B4BBEF2EF0BDEF6D
:105D74002EF0F3EF2EF0010E176EC7EF2EF0D89031
:105D84000F36103611361236172A12AECCEF2EF01B
:105D9400CEEF2EF0C1EF2EF0D89013361436153610
:105DA40016360F500B5C10500C5811500D581250F1
:105DB4000E58D8A0E0EF2EF0E2EF2EF0EBEF2EF02D
:105DC4000F500B5E10500C5A11500D5A12500E5AAF
:105DD4001380D8901232113210320F32172ECEEFB8
:105DE4002EF013C00BF014C00CF015C00DF016C04B
:105DF4000EF0120032503310D8B403EF2FF005EF39
:105E04002FF013EF2FF032C017F033C018F056EC18
:105E140034F00009D8A411EF2FF013EF2FF01DEF89
:105E24002FF0000E326E000E336E000E346E000E34
:105E3400356E4CEF2FF034C00BF035C00CF036C08B
:105E44000DF037C00EF0010E45EC1DF00BC019F03B
:105E54000CC01AF00DC01BF00EC01CF020EE09F0AF
:105E64003250D9263350DA226F0078FF1DF06F00CC
:105E740078FF1EF06F0078FF1FF06F0078FF20F0AE
:105E8400C3EC0CF019C032F01AC033F01BC034F06C
:105E94001CC035F012000D500E10D8A454EF2FF092
:105EA40056EF2FF058EF2FF09AEF2FF0600037F0F5
:105EB400D9FF60003BF0DAFF010EDF6E20EE01F047
:105EC4000D50D9260E50DA22DE6ADE6ADE6ADD6AF9
:105ED40020EE05F00D50D9260E50DA22DE6ADE6A75
:105EE400DE6ADD6A20EE09F00D50D9260E50DA2262
:105EF4006F0EDE6E120EDE6E030EDE6E3B0EDD6E78
:105F040020EE0DF00D50D9260E50DA22010EDF6E70
:105F140020EE0EF00D50D9260E50DA22000EDE6E61
:105F2400000EDE6E000EDE6E000EDD6EBCEC39F08F
:105F34001200000E0D6E0B500C10D8A4A4EF2FF01D
:105F4400A6EF2FF0A9EF2FF0000EE6EF2FF020EED2
:105F540010F00B50D9260C50DA22DF50D8B4B5EF2C
:105F64002FF0B7EF2FF0B8EF2FF00D8020EE11F0E7
:105F74000B50D9260C50DA22DF50D8B4C4EF2FF0DE
:105F8400C6EF2FF0C7EF2FF00D8220EE13F00B5069
:105F9400D9260C50DA22DF50D8B4D3EF2FF0D5EF46
:105FA4002FF0D6EF2FF00D8420EE12F00B50D926EF
:105FB4000C50DA22DF50D8B4E2EF2FF0E4EF2FF0E8
:105FC400E5EF2FF00D860D50120027502810D8A4AD
:105FD400EEEF2FF0F0EF2FF0FAEF2FF0000E276E18
:105FE400000E286E000E296E000E2A6E32EF30F07D
:105FF40020EE02F02750D9262850DA226F0078FFCD
:106004001BF06F0078FF1CF06F0078FF1DF06F002D
:1060140078FF1EF020EE1BF02750D9262850DA22F4
:106024006F0078FF1FF06F0078FF20F06F0078FF9B
:1060340021F06F0078FF22F07EEC36F01BC023F0D5
:106044001CC024F01DC025F01EC026F013EC36F051
:1060540023C027F024C028F025C029F026C02AF048
:1060640012000B500C10D8A43AEF30F03CEF30F093
:106074003EEF30F076EF30F020EE04F00B50D926EE
:106084000C50DA22DF50D8A44AEF30F04CEF30F055
:1060940056EF30F060002FF0D9FF600033F0DAFFE4
:1060A400000EDF6E76EF30F020EE05F00B50D926AF
:1060B4000C50DA22DF50D8B462EF30F064EF30F0E5
:1060C4006EEF30F060002FF0D9FF600033F0DAFF9C
:1060D400020EDF6E76EF30F060002FF0D9FF600023
:1060E40033F0DAFF010EDF6E1200390193996E0E60
:1060F4000B6E6C0E0C6ED1EC3AF0000E3D01EC6FA1
:10610400000EED6F000EEE6F000EEF6F000EF06FDD
:10611400000EF16FA00EF26F800EF36F000EF46F9D
:10612400220EF56F000EF66F000EF76F000EF86F7B
:10613400000EF96F000EFA6F000E0B6E000E0C6E5F
:10614400DBEC3AF0000E0B6E000E0C6ED6EC3AF05F
:10615400000E0B6E000E0C6EE0EC3AF0000E516E69
:10616400000E536E000E526E400E0001E96F1200D5
:10617400000ECBB0010E026E000ECBB2010E016E0A
:106184004F50D8A4C8EF30F0CAEF30F0D0EF30F061
:1061940002C050F0010E4F6EFCEF30F05050D8A406
:1061A400D6EF30F0D8EF30F0FAEF30F00204D8A494
:1061B400DEEF30F0E0EF30F0FAEF30F00150D8A429
:1061C400E6EF30F0E8EF30F0F1EF30F0010E0001CF
:1061D4007C27000E7D237E237F23FAEF30F0FF0E11
:1061E40000017C27FF0E7D23FF0E7E23FF0E7F23FD
:1061F40002C050F012002A502B10D8A404EF31F042
:1062040006EF31F009EF31F0050E3BEF31F020EEEF
:1062140002F02A50D9262B50DA226F0078FF0BF0B7
:106224006F0078FF0CF06F0078FF0DF06F0078FFBF
:106234000EF02CC00FF02DC010F02EC011F02FC0A6
:1062440012F00AEC08F00BC030F00CC031F00DC0B5
:1062540032F00EC033F02AC023F02BC024F030C03B
:1062640025F031C026F032C027F033C028F07AEC94
:1062740020F012000B500C10D8A443EF31F045EF7E
:1062840031F048EF31F0000E7AEF31F0010E0E6E6E
:1062940060002FF0D9FF600033F0DAFF020EDE1841
:1062A400D8B457EF31F059EF31F079EF31F06000A5
:1062B4002FF0D9FF600033F0DAFF040EDE18D8B4F3
:1062C40066EF31F068EF31F079EF31F060002FF0D4
:1062D400D9FF600033F0DAFF050EDE18D8B475EF8D
:1062E40031F077EF31F079EF31F0000E0E6E0E5091
:1062F400120019501A10D8A482EF31F084EF31F053
:106304008EEF31F0000E196E000E1A6E000E1B6E29
:10631400000E1C6EB8EF31F019C017F01AC018F057
:1063240056EC34F00009D8A49AEF31F09CEF31F028
:10633400A6EF31F0000E196E000E1A6E000E1B6EE1
:10634400000E1C6EB8EF31F020EE0EF01950D92675
:106354001A50DA226F0078FF19F06F0078FF1AF0F4
:106364006F0078FF1BF06F0078FF1CF01200116EB5
:1063740011500F6E106AD8900F361036D8900F3621
:106384001036D8900F3610360FC016F010C017F024
:10639400000E17BEFF0E186E196E0BC00FF0050E1F
:1063A400106ED8900F32102ED3EF31F00F50162408
:1063B400166E000E1720176E000E1820186E000EB1
:1063C4001920196E16C012F017C013F018C014F07B
:1063D40019C015F012C00BF013C00CF014C00DF06E
:1063E40015C00EF012000001A46FA20E0F6E000E75
:1063F400106EAC0E116E000E126ED0EC14F036C09E
:106404000EF037C00FF0AC0E106E000E116E0001CE
:10641400A45130EC32F020EEA6F0050E6F00AFFF71
:10642400DBFFE806FBE2010E256E810E246EA60E4C
:10643400266E000E276EECEC2CF00001A56FA55122
:10644400D8A427EF32F029EF32F02DEF32F047ECE9
:106454003AF02FEF32F052EC3AF01200146E14C0FE
:1064640015F00EC016F00FC017F010501110D8B46C
:106474003EEF32F040EF32F059EF32F0600043F07B
:10648400D9FF600047F0DAFFDF50186E20EE01F00C
:106494001050D9261150DA22DF50196E10C00BF0BB
:1064A40011C00CF09BEC2FF01A6E5FEF32F0070E68
:1064B400186E050E196E040E1A6E20EE15F000EE1D
:1064C4000EF0050E6F006FFFEBFFE806FBE2120013
:1064D400116E85EF32F0A2EC3AF092EC3AF0A3EFB1
:1064E40032F0A2EC3AF08AEC3AF0A3EF32F09AECF4
:1064F4003AF08AEC3AF0A3EF32F09AEC3AF092ECEC
:106504003AF0A3EF32F01150030B0F6E106A1050E3
:10651400000AD8B490EF32F07FEF32F00F50000A47
:10652400D8B46DEF32F0010AD8B473EF32F0030A35
:10653400D8B479EF32F0010AD8B47FEF32F07FEFAC
:1065440032F01200076EBFEF32F0C2EC3AF0B2EC58
:106554003AF0DDEF32F0C2EC3AF0AAEC3AF0DDEFBB
:1065640032F0BAEC3AF0AAEC3AF0DDEF32F0BAECE1
:106574003AF0B2EC3AF0DDEF32F00750030B056E5F
:10658400066A0650000AD8B4CAEF32F0B9EF32F006
:106594000550000AD8B4A7EF32F0010AD8B4ADEF21
:1065A40032F0030AD8B4B3EF32F0010AD8B4B9EF29
:1065B40032F0B9EF32F012000C500D10D8A4E5EF10
:1065C40032F0E7EF32F0E9EF32F016EF33F020EE7D
:1065D40001F00C50D9260D50DA220E50DE18D8A442
:1065E400F6EF32F0F8EF32F0FAEF32F016EF33F064
:1065F40020EE05F00C50D9260D50DA22DF50D8B425
:1066040006EF33F008EF33F00AEF33F016EF33F010
:1066140020EE01F00C50D9260D50DA2260003BF038
:10662400DFFF0E5003EC3BF01200100EF66E760EF8
:10663400F76E000EF86E09006F00D4FFEAF009004F
:106644006F00D4FFEBF00E0EF66E760EF76E000EB2
:10665400F86E09006F00D4FF54F009006F00D4FFF6
:1066640055F000EE00F1A40EEE6AE806FDE100EE3E
:1066740060F0440EEE6AE806FDE100EE4CF0080E10
:10668400EE6AE806FDE1080ED56E000ED66E000E29
:10669400D76E000123EF3AF010501110D8A455EF33
:1066A40033F057EF33F059EF33F084EF33F020EE4B
:1066B40004F01050D9261150DA22DF50D8B465EF17
:1066C40033F067EF33F06FEF33F010C00BF011C00D
:1066D4000CF033EC30F084EF33F020EE04F0105083
:1066E400D9261150DA22010EDF6E20EE05F010508B
:1066F400D9261150DA22000EDF6E010EFBEC39F0C0
:1067040067EF33F012000B500C10D8A48CEF33F069
:106714008EEF33F094EF33F0000E0C6E000E0B6E20
:10672400B9EF33F00BC00EF00CC00FF0000E116E79
:10673400000E106E000E126E12500E24D96E000E52
:106744000F20DA6EDF500D6E0D501024106E000E07
:106754001120116E122A180E1264B3EF33F0B5EF44
:1067640033F09EEF33F010C00BF011C00CF01200A8
:106774001F502010D8A4C1EF33F0C3EF33F0C5EF9E
:1067840033F0EDEF33F020EE05F01F50D926205002
:10679400DA22DF50D8A4D1EF33F0D3EF33F0DBEFBC
:1067A40033F01FC00BF020C00CF033EC30F0EDEFF1
:1067B40033F0000E196E000E186E000E1A6E67ECA0
:1067C4002BF020EE05F01F50D9262050DA22000EBF
:1067D400DF6ED3EF33F01200890E0B5C130E0C58EE
:1067E400D8A0F7EF33F0F9EF33F0FFEF33F0130EE7
:1067F4000C6E880E0B6E21EF34F00B500C10D8A4E5
:1068040006EF34F008EF34F00EEF34F0000E0C6EA7
:10681400000E0B6E21EF34F00B500C10D8A415EFC2
:1068240034F017EF34F01DEF34F0000E0C6E010E4F
:106834000B6E21EF34F00BC00BF00CC00CF0120007
:106844005404D8A428EF34F02AEF34F02EEF34F0B7
:10685400080E086E30EF34F0040E086E4C50D8A4C5
:1068640036EF34F038EF34F046EF34F04D2A085068
:106874004D5CD8A040EF34F042EF34F053EF34F0E5
:10688400000E4D6E53EF34F04D50D8A44CEF34F05D
:106894004EEF34F052EF34F008044D6E53EF34F001
:1068A4004D06CDEC39F0120017501810D8A45DEF46
:1068B40034F05FEF34F062EF34F0000E87EF34F021
:1068C400000E0B6E000E0C6E000E0D6E000E0E6EA2
:1068D40020EE09F01750D9261850DA226F0078FFFD
:1068E4000FF06F0078FF10F06F0078FF11F06F0069
:1068F40078FF12F08CEC27F0D8A083EF34F086EF09
:1069040034F0010E87EF34F0000E120025502610EB
:10691400D8A48FEF34F091EF34F094EF34F0000EFC
:10692400B5EF34F020EE2BF02550D9262650DA228C
:10693400DE50DE10D8B4A1EF34F0A3EF34F0B4EF9E
:1069440034F020EE2BF02550D9262650DA22DE062C
:10695400000EDD5A25C021F026C022F0E0EC34F010
:1069640091EF34F0010E120011501210D8A4BDEFB3
:1069740034F0BFEF34F0C1EF34F0DFEF34F0000E49
:10698400146ED6EF34F014500F240B6E000E10204A
:106994000C6E14501124D96E000E1220DA6EDF50E2
:1069A4000D6ECAEC35F0142A1350145CD8A0DDEF38
:1069B40034F0DFEF34F0C5EF34F012002150221030
:1069C400D8B4E7EF34F0E9EF34F008EF35F020EE17
:1069D4002DF02150D9262250DA22DE50DE10D8A420
:1069E400F6EF34F0F8EF34F0FAEF34F008EF35F066
:1069F40020EE2DF02150D9262250DA226F0078FFA4
:106A04001FF06F0074FF20F0BAEC33F012000F5047
:106A14001010D8A410EF35F012EF35F014EF35F064
:106A240031EF35F0000E126E28EF35F012500F24BE
:106A3400D96E000E1020DA6E12500D240B6E000E6B
:106A44000E200C6EDEEC39F0DF6E122A1150125C4F
:106A5400D8A02FEF35F031EF35F018EF35F01200F4
:106A64000B500C10D8A439EF35F03BEF35F045EF5F
:106A740035F0000E0B6E000E0C6E000E0D6E000E47
:106A84000E6E57EF35F020EE06F00B50D9260C5061
:106A9400DA226F0078FF0BF06F0078FF0CF06F00C4
:106AA40078FF0DF06F0078FF0EF012000B500C1001
:106AB400D8A45FEF35F061EF35F06BEF35F0000EE1
