:040000000DEF00F010
:0400080006EF09F006
:10001800FF0026EF0CF0000E186E000E196E000E91
:100028001A6E000E1B6E000E176E3701E0B71FEF39
:1000380000F021EF00F0A7EF00F020EE01F01550DE
:10004800D9261650DA226F0078FF03F06F0078FF88
:1000580004F06F0078FF05F06F0078FF06F060008D
:1000680057F0D9FF60005BF0DAFFDF50076E180E1B
:10007800086E000E096E190E0A6E000E0B6E1A0E2F
:100088000C6E000E0D6E1B0E0E6E000E0F6E0CEC3D
:1000980004F0600063F0E3F7600067F0E4F76000E5
:1000A8006BF0E1F760006FF0E2F720EE05F0155015
:1000B800D9261650DA22DF503701E56F20EE06F018
:1000C8001550D9261650DA22DF50E66F20EE07F0D9
:1000D8001550D9261650DA22DF50E76F20EE08F0C7
:1000E8001550D9261650DA22DF50E86F20EE09F0B5
:1000F8001550D9261650DA22DF50E96F20EE0AF0A3
:100108001550D9261650DA22DF50EA6F20EE0BF090
:100118001550D9261650DA22DF50EB6F20EE0CF07E
:100128001550D9261650DA22DF50EC6F20EE0DF06C
:100138001550D9261650DA22DF50ED6FE087010EF0
:10014800176EBDEF01F0D0B7ACEF00F0AEEF00F0E6
:1001580032EF01F020EE01F01550D9261650DA22C0
:100168006F0078FF03F06F0078FF04F06F0078FFEE
:1001780005F06F0078FF06F0600057F0D9FF6000C7
:100188005BF0DAFFDF50076E180E086E000E096E7E
:10019800190E0A6E000E0B6E1A0E0C6E000E0D6E06
:1001A8001B0E0E6E000E0F6E0CEC04F0600063F078
:1001B800D3F7600067F0D4F760006BF0D1F7600008
:1001C8006FF0D2F720EE05F01550D9261650DA2236
:1001D800DF503701D56F20EE06F01550D92616509E
:1001E800DA22DF50D66F20EE07F01550D9261650C8
:1001F800DA22DF50D76F20EE08F01550D9261650B6
:10020800DA22DF50D86F20EE09F01550D9261650A3
:10021800DA22DF50D96F20EE0AF01550D926165091
:10022800DA22DF50DA6F20EE0BF01550D92616507F
:10023800DA22DF50DB6F20EE0CF01550D92616506D
:10024800DA22DF50DC6F20EE0DF01550D92616505B
:10025800DA22DF50DD6FD087A3EF00F0C0B737EFA9
:1002680001F039EF01F0BDEF01F020EE01F015507B
:10027800D9261650DA226F0078FF03F06F0078FF56
:1002880004F06F0078FF05F06F0078FF06F060005B
:1002980057F0D9FF60005BF0DAFFDF50076E180EE9
:1002A800086E000E096E190E0A6E000E0B6E1A0EFD
:1002B8000C6E000E0D6E1B0E0E6E000E0F6E0CEC0B
:1002C80004F0600063F0C3F7600067F0C4F76000F3
:1002D8006BF0C1F760006FF0C2F720EE05F0155023
:1002E800D9261650DA22DF503701C56F20EE06F006
:1002F8001550D9261650DA22DF50C66F20EE07F0C7
:100308001550D9261650DA22DF50C76F20EE08F0B4
:100318001550D9261650DA22DF50C86F20EE09F0A2
:100328001550D9261650DA22DF50C96F20EE0AF090
:100338001550D9261650DA22DF50CA6F20EE0BF07E
:100348001550D9261650DA22DF50CB6F20EE0CF06C
:100358001550D9261650DA22DF50CC6F20EE0DF05A
:100368001550D9261650DA22DF50CD6FC087A3EF7B
:1003780000F017501200000E186E80AEC6EF01F0A4
:10038800C8EF01F06DEF02F082A6CDEF01F0CFEFDC
:1003980001F0F7EF01F060005BF0D9FF60005FF05B
:1003A800DAFF020EDF6E6F0010FE03F06F0004FE2E
:1003B80004F06F0008FE05F083508AEC05F020EE8B
:1003C80001F01650D9261750DA2260000FF0DEFF30
:1003D800600013F0DEFF600017F0DEFF60001BF026
:1003E800DEFF17EF02F060005BF0D9FF60005FF0FE
:1003F800DAFF010EDF6E6F0008FE03F08150EAECB1
:100408000BF020EE01F01650D9261750DA226000C2
:100418000FF0DEFF600013F0DEFF600017F0DEFF74
:1004280060001BF0DEFF20EE05F01650D9261750AD
:10043800DA226F0017FEDFFF20EE06F01650D926ED
:100448001750DA226F001BFEDFFF20EE07F0165070
:10045800D9261750DA226F001FFEDFFF20EE08F0C2
:100468001650D9261750DA226F0023FEDFFF20EE40
:1004780009F01650D9261750DA226F0027FEDFFF41
:1004880020EE0AF01650D9261750DA226F002BFEFC
:10049800DFFF20EE0BF01650D9261750DA226F0036
:1004A8002FFEDFFF20EE0CF01650D9261750DA2267
:1004B8006F0033FEDFFF20EE0DF01650D9261750DF
:1004C800DA226F0037FEDFFF809E010E186E19EFEB
:1004D80003F03701F0AF73EF02F075EF02F019EF98
:1004E80003F0F2A77AEF02F07CEF02F0A4EF02F03B
:1004F80060005BF0D9FF60005FF0DAFF020EDF6E8C
:100508006D00D0FF03F06D00C4FF04F06D00C8FF5C
:1005180005F0F3518AEC05F020EE01F01650D926CB
:100528001750DA2260000FF0DEFF600013F0DEFFE4
:10053800600017F0DEFF60001BF0DEFFC4EF02F082
:1005480060005BF0D9FF60005FF0DAFF010EDF6E3C
:100558006D00C8FF03F0F151EAEC0BF020EE01F05A
:100568001650D9261750DA2260000FF0DEFF60001F
:1005780013F0DEFF600017F0DEFF60001BF0DEFF07
:1005880020EE05F01650D9261750DA226D00D7FF55
:10059800DFFF20EE06F01650D9261750DA226D003C
:1005A800DBFFDFFF20EE07F01650D9261750DA22BE
:1005B8006D00DFFFDFFF20EE08F01650D926175038
:1005C800DA226D00E3FFDFFF20EE09F01650D9268E
:1005D8001750DA226D00E7FFDFFF20EE0AF0165011
:1005E800D9261750DA226D00EBFFDFFF20EE0BF063
:1005F8001650D9261750DA226D00EFFFDFFF20EEE4
:100608000CF01650D9261750DA226D00F3FFDFFFE1
:1006180020EE0DF01650D9261750DA226D00F7FF9C
:10062800DFFF3701F09F69EF02F018501200000158
:10063800BA6F0001BA51C2EC0EF00009D8A427EF36
:1006480003F029EF03F032EF03F0D30E036EFE0E32
:10065800046E11EC0EF0000E0BEF04F04C501BEC86
:100668000BF00009D8A43BEF03F03DEF03F045EF92
:1006780003F0E90E036EFE0E046E11EC0EF02FEF80
:1006880003F04C5067EC0DF00009D8B44EEF03F0BE
:1006980050EF03F064EF03F00001BA515CEC0CF08A
:1006A8000009D8A45AEF03F05CEF03F064EF03F0FD
:1006B8006E0E036EFE0E046E11EC0EF02FEF03F0BB
:1006C80058C0B2F0582A4CC0B4F0B2C0B5F04DC012
:1006D800B6F04EC0B7F04FC0B8F050C0B9F0000E39
:1006E8000001B36FBA51020D660EF324F66EFE0ECA
:1006F800F420F76EF86A000EF82209006F00D4FFA4
:100708001CF00A006F00D4FF1DF0B40E1E6E000E20
:100718001F6E67EC09F00001B16FB151D8B497EFC3
:1007280003F099EF03F0ACEF03F0BB0E036EFF0E7E
:10073800046E11EC0EF0B1C00FF0106A4CEC0DF025
:10074800BA0E036EFE0E046E11EC0EF0F9EF03F014
:10075800C40E036EFF0E046E11EC0EF0BAC00FF05B
:10076800106A4CEC0DF0B50E036EFF0E046E11EC22
:100778000EF04CC00FF0106A4CEC0DF0ED0E036E4D
:10078800FF0E046E11EC0EF0B2C00FF0106A4CECC4
:100798000DF0F90E036EFF0E046E11EC0EF0B3C0EF
:1007A8000FF0106A4CEC0DF0BA0E036EFE0E046EDC
:1007B80011EC0EF0B2C031F0BB0E326E000E336E8B
:1007C8000001BA514AEC07F00009D8B4EEEF03F083
:1007D800F0EF03F0F3EF03F0010E0BEF04F05B0E04
:1007E800036EFF0E046E11EC0EF00001B32B020E27
:1007F800B36501EF04F003EF04F076EF03F08C0E1D
:10080800036EFE0E046E11EC0EF02FEF03F01200D3
:10081800020E0718D8A413EF04F015EF04F0A3EFA5
:1008280004F060002BF0D9FF60002FF0DAFF6000C1
:100838000FF0DFFF03C010F004C011F005C012F084
:1008480006C013F011C010F012C011F013C012F05E
:10085800136A10C003F011C004F012C005F013C0F1
:1008680006F0600023F0D9FF600027F0DAFF60008F
:100878000FF0DFFF03C010F004C011F005C012F044
:1008880006C013F011C010F012C011F013C012F01E
:10089800136A10C003F011C004F012C005F013C0B1
:1008A80006F00350030B146E03C010F004C011F0DF
:1008B80005C012F006C013F0030ED890103611369A
:1008C80012361336E82E61EF04F010C003F011C0A1
:1008D80004F012C005F013C006F00350E00B142416
:1008E800146E1450080F146E1450EB0B60003BF09C
:1008F800D9FF60003FF0DAFFDF6E03C010F004C0DC
:1009080011F005C012F006C013F011C010F012C0AB
:1009180011F013C012F0136A10C003F011C004F0F4
:1009280012C005F013C006F0600033F0D9FF600074
:1009380037F0DAFF60000FF0DFFFD7EF04F0600058
:1009480023F0D9FF600027F0DAFF000EDF6E6000A9
:100958002BF0D9FF60002FF0DAFF000EDF6E03C026
:1009680010F004C011F005C012F006C013F0050E17
:10097800D8901036113612361336E82EBCEF04F034
:1009880010C003F011C004F012C005F013C006F047
:1009980060003BF0D9FF60003FF0DAFF60000FF025
:1009A800DFFF81EF04F01200000E0D6E0BC003F0A4
:1009B8000CC004F0270E066E100E056EA4EC08F0AD
:1009C80003500E6E0E50D8B4ECEF04F0EEEF04F0C6
:1009D800F0EF04F0010E0D6E0BC003F00CC004F034
:1009E800270E066E100E056EC4EC09F003C00BF05E
:1009F80004C00CF00BC003F00CC004F0030E066E2C
:100A0800E80E056EA4EC08F003500E6E0E50D8A444
:100A180010EF05F012EF05F01AEF05F00D50D8B4FD
:100A280018EF05F01AEF05F01CEF05F0010E0D6E3A
:100A38000BC003F00CC004F0030E066EE80E056E42
:100A4800C4EC09F003C00BF004C00CF00BC003F0B9
:100A58000CC004F0000E066E640E056EA4EC08F0DF
:100A680003500E6E0E50D8A43CEF05F03EEF05F093
:100A780046EF05F00D50D8B444EF05F046EF05F009
:100A880048EF05F0010E0D6E0BC003F00CC004F02A
:100A9800000E066E640E056EC4EC09F003C00BF080
:100AA80004C00CF00BC003F00CC004F0000E066E7E
:100AB8000A0E056EA4EC08F003500E6E0E50D8A472
:100AC80068EF05F06AEF05F072EF05F00D50D8B445
:100AD80070EF05F072EF05F072EF05F00BC003F050
:100AE8000CC004F0000E066E0A0E056EC4EC09F088
:100AF80003500B6E0C6A0BC003F00CC004F0000E20
:100B0800066E0A0E056EC4EC09F012000B6E000E9C
:100B1800126E000E136E000E146E000E156E055048
:100B2800030B106E0538E842070B116E0450076E70
:100B3800086AD89007360836D89007360836D8900D
:100B48000736083607C012F008C013F0000E13BEAF
:100B5800FF0E146E156E11501224126E000E132023
:100B6800136E000E1420146E000E1520156E12C0A0
:100B780007F013C008F014C009F015C00AF0020EFF
:100B8800D8900736083609360A36E82EC4EF05F03D
:100B980007C012F008C013F009C014F00AC015F01D
:100BA80010501224126E000E1320136E000E142023
:100BB800146E000E1520156E12C008F013C009F04F
:100BC80014C00AF0076A07C012F008C013F009C081
:100BD80014F00AC015F00B501224126E000E1320E8
:100BE800136E000E1420146E000E1520156E12C020
:100BF80008F013C009F014C00AF0076A07C012F021
:100C080008C013F009C014F00AC015F003501224EC
:100C1800126E000E1320136E000E1420146E000EB8
:100C28001520156E12C00CF013C00DF014C00EF094
:100C380015C00FF00CC003F00DC004F00EC005F095
:100C48000FC006F012001B501C10D8B42EEF06F08F
:100C580030EF06F039EF06F01D501E10D8A437EF1C
:100C680006F039EF06F03CEF06F0010EBBEF06F098
:100C7800600077F0D9FF60007BF0DAFF000EDF6ECE
:100C8800230E166E000E176EBFEC01F00009D8A4F3
:100C980050EF06F052EF06F055EF06F0000EBBEFEE
:100CA80006F019501F6E1A50206E216A226A2450CD
:100CB8001F180FE1255020180CE12650211809E1D2
:100CC80027502218D8B46BEF06F06DEF06F06FEFDF
:100CD80006F052EF06F0080E2818D8B476EF06F0A2
:100CE80078EF06F07BEF06F0020EBBEF06F060002F
:100CF8006FF0D9FF600073F0DAFF6000A7F0DFFF44
:100D080020EE01F01B50D9261C50DA226000ABF00F
:100D1800DFFF20EE02F01B50D9261C50DA226000BB
:100D2800AFF0DFFF20EE03F01B50D9261C50DA226B
:100D38006000B3F0DFFF20EE04F01B50D9261C50F2
:100D4800DA226000B7F0DFFF20EE05F01B50D9264D
:100D58001C50DA226000BBF0DFFF600077F0D9FF9B
:100D680060007BF0DAFF010EDF6E52EF06F0120032
:100D78003CEC0EF0BA98BA9A90EC0CF0660E0001B2
:100D8800C26F760EC16FC10EE82EFED7C12FFCD7F9
:100D9800C22FFAD7000E516E000E526E000E536E1F
:100DA800000E546E070E2EEC0DF00B0E0001C26FF4
:100DB800260EC16F5D0EE82EFED7C12FFCD7C22FBD
:100DC800FAD700D0000E516E000E526E700E536EA0
:100DD800410E546E050E2EEC0DF03D0E0001C26F53
:100DE800E10EC16F3F0EE82EFED7C12FFCD7C22FF0
:100DF800FAD700D0000E516E000E526E000E536EE0
:100E0800000E546E050E2EEC0DF03D0E0001C26F63
:100E1800E10EC16F3F0EE82EFED7C12FFCD7C22FBF
:100E2800FAD700D0000E516E000E526EF00E536EBF
:100E3800410E546E050E2EEC0DF03D0E0001C26FF2
:100E4800E10EC16F3F0EE82EFED7C12FFCD7C22F8F
:100E5800FAD700D0000E516E000E526E000E536E7F
:100E6800000E546E070E2EEC0DF0150E0001C26F29
:100E78004B0EC16FBE0EE82EFED7C12FFCD7C22F76
:100E8800FAD700F02EEF07F00DEF00F0356E000EE8
:100E9800386E000E376E3550020D5E0EF324F66E76
:100EA800FE0EF420F76EF86A000EF82209006F00B3
:100EB800D4FF19F00A006F00D4FF1AF032C01BF0FB
:100EC80033C01CF0380E1D6E000E1E6E27EC06F0A7
:100ED800366E3650D8B473EF07F075EF07F086EF2B
:100EE80007F0D50E036EFF0E046E11EC0EF036C03F
:100EF8000FF0106A4CEC0DF0BA0E036EFE0E046E85
:100F080011EC0EF03850D8B48CEF07F08EEF07F0E4
:100F1800B3EF07F020EE01F03250D9263350DA2231
:100F28003150DE18D8A49BEF07F09DEF07F0ADEF26
:100F380007F032C004F033C005F035501CEC0AF05D
:100F480032C011F033C012F0C5EC07F0010EC4EF47
:100F580007F0370E036EFF0E046E11EC0EF0340E20
:100F6800346EF20EE82EFED7342EFCD7372A310E17
:100F78003764C1EF07F0C3EF07F04FEF07F0000E3B
:100F88001200B20E036EFF0E046E11EC0EF060003C
:100F980047F0D9FF60004BF0DAFFDF50136E1350B3
:100FA8000F6E106A4CEC0DF0ED0E036EFF0E046E22
:100FB80011EC0EF020EE01F01150D9261250DA2271
:100FC800DF50136E13500F6E106A4CEC0DF0F30ED9
:100FD800036EFF0E046E11EC0EF020EE02F01150BD
:100FE800D9261250DA22DF50136E13500F6E106A92
:100FF8004CEC0DF0CD0E036EFF0E046E11EC0EF0EE
:1010080020EE03F01150D9261250DA22DF50136E69
:1010180013500F6E106A4CEC0DF0E50E036EFF0EC8
:10102800046E11EC0EF020EE04F01150D926125087
:10103800DA22DF50136E13500F6E106A4CEC0DF06D
:10104800DD0E036EFF0E046E11EC0EF020EE05F0BF
:101058001150D9261250DA22DF50136E13500F6E3A
:10106800106A4CEC0DF0BA0E036EFE0E046E11EC15
:101078000EF01200800E8F6E8E50E00B800AD8A4FE
:1010880048EF08F04AEF08F040EF08F0000E916EC4
:10109800000E3701006F000EBA6F000EBB6F000E16
:1010A800B86F000EB96F000EBE6F000EBF6F000E56
:1010B800BC6F000EBD6F000EA26F000EA36F000E76
:1010C800A06F000EA16F000EA66F000EA76F000E96
:1010D800A46F000EA56F000EAA6F000EAB6F000E76
:1010E800A86F000EA96F000EAE6F000EAF6F000E56
:1010F800AC6F000EAD6F000EB26F000EB36F000E36
:10110800B06F000EB16F000EB66F000EB76F000E15
:10111800B46F000EB56F000E036F980E046F810E4A
:10112800056F000E8F6E6F0038FE03F0E00E031699
:10113800D8A4A1EF08F0A3EF08F097EF08F0120089
:10114800000E086E06BEADEF08F0ABEF08F0B3EF87
:1011580008F0056C061ED8B0062A010E086E04BEFB
:10116800BAEF08F0B8EF08F0C0EF08F0036C041EFF
:10117800D8B0042A010E081A000E0A6E000E096E75
:1011880005500610D8B4CBEF08F0CDEF08F0F5EF16
:1011980008F0010E076ED5EF08F0D8900536063630
:1011A800072A06AEDAEF08F0DCEF08F0D1EF08F016
:1011B800D89009360A360550035C06500458D8A062
:1011C800E8EF08F0EAEF08F0EFEF08F00550035EEB
:1011D8000650045A0980D89006320532072EDCEFF3
:1011E80008F00850D8B4FBEF08F0FDEF08F001EF65
:1011F80009F0096C0A1ED8B00A2A09C003F00AC00F
:1012080004F012006F00E8FF01F06F00ECFF02F03D
:10121800390190AF12EF09F014EF09F01FEF09F050
:10122800A0AF19EF09F01BEF09F01FEF09F00FEC61
:101238000DF060EF09F094A524EF09F026EF09F00E
:1012480031EF09F0A4A52BEF09F02DEF09F031EFEC
:1012580009F0CBEC0DF060EF09F093AF36EF09F031
:1012680038EF09F043EF09F0A3AF3DEF09F03FEF86
:1012780009F043EF09F00EEC0FF060EF09F093A9C5
:1012880048EF09F04AEF09F060EF09F0A3A94FEF22
:1012980009F051EF09F060EF09F002D85EEF09F0AC
:1012A8000500FA6E0001A651FD6EA751FE6EFF6A99
:1012B800FA50120060EF09F060000BF0FBFF6000CD
:1012C80007F0FAFF11001E501F10D8A46EEF09F0A6
:1012D80070EF09F073EF09F0010EC3EF09F020EE8B
:1012E80002F01E50D9261F50DA226F0078FF03F053
:1012F8006F0078FF04F06F0078FF05F06F0078FF4B
:1013080006F0200E076E000E086EBEEC0CF01CC036
:1013180025F01DC026F0276A286A010E246E080EE3
:10132800296E60007BF0D9FF60007FF0DAFFDF50A4
:101338002A6E20EE01F01E50D9261F50DA22DF5007
:101348002B6E20C02CF021C02DF022C02EF023C01F
:101358002FF0000E306E000E316E240E156E000E4A
:10136800166E0FEC00F00009D8A4BDEF09F0BFEF2E
:1013780009F0C2EF09F0040EC3EF09F0000E1200E5
:10138800000E086E04BECDEF09F0CBEF09F0D3EFE5
:1013980009F0036C041ED8B0042A010E086E06BEBC
:1013A800DAEF09F0D8EF09F0DEEF09F0056C061E58
:1013B800D8B0062A05500610D8B4E5EF09F0E7EFD3
:1013C80009F00BEF0AF0010E076EEFEF09F0D89065
:1013D80005360636072A06AEF4EF09F0F6EF09F0EF
:1013E800EBEF09F00550035C06500458D8A0FFEF56
:1013F80009F001EF0AF005EF0AF00550035E065008
:10140800045AD89006320532072EF6EF09F0085034
:10141800D8B411EF0AF013EF0AF017EF0AF0036CD3
:10142800041ED8B0042A03C003F004C004F012005C
:10143800066E04500510D8A424EF0AF026EF0AF02F
:1014480028EF0AF071EF0AF00650C2EC0EF000091E
:10145800D8A431EF0AF033EF0AF035EF0AF071EF54
:101468000AF020EE02F00450D9260550DA22880E40
:101478000624E16EE26A000EE2226F007FFFE7FFBA
:1014880020EE03F00450D9260550DA228C0E0624EB
:10149800E16EE26A000EE2226F007FFFE7FF20EEB6
:1014A80004F00450D9260550DA22840E0624E16E91
:1014B800E26A000EE2226F007FFFE7FF20EE05F0F0
:1014C8000450D9260550DA22800E0624E16EE26A1D
:1014D800000EE2226F007FFFE7FF12003B6E3B50D9
:1014E800C2EC0EF00009D8A47CEF0AF07EEF0AF0F7
:1014F80081EF0AF0000EC6EF0AF058C03AF0582AF9
:10150800070E3C6E3AC03DF0000E3E6E000E3F6E78
:10151800000E406E000E416E3B50020D660EF32425
:10152800F66EFE0EF420F76EF86A000EF822090037
:101538006F00D4FF1CF00A006F00D4FF1DF03C0EB2
:101548001E6E000E1F6E67EC09F0396E3950D8B464
:10155800B0EF0AF0B2EF0AF0B4EF0AF07EEF0AF04B
:101568003AC031F0420E326E000E336E3B504AECF8
:1015780007F00009D8B4C3EF0AF0C5EF0AF07EEF10
:101588000AF0010E1200000EBA6E000EBB6E000EBD
:10159800BC6E000EC26E270EC36E440EC46E020EE1
:1015A8003A01606F300E506F000E406F000E816F71
:1015B800000E516F000E416F000E616F000E426FFA
:1015C800000E526F000E626F436953696369446984
:1015D80054696469080E846F5791579357955681DB
:1015E80056835695558155835585320E036E1E0ECA
:1015F800046E09EC0FF0300E036E1E0E046E04EC40
:101608000FF02E0E036E1E0E046EFFEC0EF0390165
:10161800908F0D0E3A01106F330E136F0E0E116F6F
:10162800120EED6F160EE76F130E176F1200056E90
:1016380024EF0BF0010E69EF0BF0000E69EF0BF0D1
:101648000550036E046A0450000AD8B42EEF0BF05C
:1016580021EF0BF00350000AD8B421EF0BF0010A78
:10166800D8B41EEF0BF0030AD8B41EEF0BF0010A32
:10167800D8B41EEF0BF0070AD8B41EEF0BF0010A1E
:10168800D8B41EEF0BF0030AD8B41EEF0BF0010A12
:10169800D8B41EEF0BF00F0AD8B41EEF0BF0010AF6
:1016A800D8B41EEF0BF0030AD8B41EEF0BF0010AF2
:1016B800D8B41EEF0BF0070AD8B41EEF0BF0010ADE
:1016C800D8B41EEF0BF021EF0BF0120039019399FB
:1016D800D60E036E190E046EE1EC0EF0000E3D01FD
:1016E800EC6F000EED6F000EEE6F000EEF6F000E48
:1016F800F06F000EF16FA00EF26F800EF36F000E08
:10170800F46F220EF56F000EF66F000EF76F000EE5
:10171800F86F000EF96F000EFA6F000E036E000EE0
:10172800046EEBEC0EF0000E036E000E046EE6EC99
:101738000EF0000E036E000E046EF0EC0EF0000EBC
:10174800596E000E5B6E000E5A6E400E0001B06FAF
:101758001200046E0450C2EC0EF00009D8A4B7EFD2
:101768000BF0B9EF0BF0BCEF0BF0000EE9EF0BF04C
:10177800800E0424D96EDA6A000EDA22DF50056E74
:1017880005B0C9EF0BF0CBEF0BF0CDEF0BF0B9EFD5
:101798000BF005A2D2EF0BF0D4EF0BF0D6EF0BF065
:1017A800B9EF0BF005A4DBEF0BF0DDEF0BF0DFEF8B
:1017B8000BF0B9EF0BF005A6E4EF0BF0E6EF0BF03A
:1017C800E8EF0BF0B9EF0BF0010E1200096E0950AB
:1017D800076E086AD89007360836D8900736083654
:1017E800D8900736083607C00EF008C00FF0000E74
:1017F8000FBEFF0E106E116E03C007F0050E086EC7
:10180800D8900732082E04EF0CF007500E240E6E05
:10181800000E0F200F6E000E1020106E000E11200B
:10182800116E0EC00AF00FC00BF010C00CF011C002
:101838000DF00AC003F00BC004F00CC005F00DC099
:1018480006F01200280EF66E1E0EF76E000EF86EE9
:1018580009006F00D4FFC3F009006F00D4FFC4F083
:10186800260EF66E1E0EF76E000EF86E09006F005B
:10187800D4FF5CF009006F00D4FF5DF000EE00F1CA
:10188800400EEE6AE806FDE100EE60F03E0EEE6AFC
:10189800E806FDE15B6A5A6A596A586A576A080E8F
:1018A800D56E000ED66E000ED76E0001BCEF06F0A6
:1018B8004A6E000E4B6E4A5072EC0AF00009D8A42A
:1018C80068EF0CF06AEF0CF077EF0CF0060E496E3B
:1018D800130E486EAE0EE82EFED7482EFCD7492EC2
:1018E800FAD785EF0CF04A50ADEC0BF00009D8B4EC
:1018F80080EF0CF082EF0CF06AEF0CF0010E8FEF26
:101908000CF04B2A770E4B648CEF0CF08EEF0CF03A
:101918005FEF0CF0000E1200000E586E000E036E02
:101928008C0E0324D96EDA6A000EDA22000EDF6EFE
:10193800880E0324D96EDA6A000EDA22040EDF6EEE
:10194800840E0324D96EDA6A000EDA22000EDF6EE6
:10195800800E0324D96EDA6A000EDA22000EDF6EDA
:10196800032A030E0364BBEF0CF0BDEF0CF094EFF9
:101978000CF0120003C009F004C00AF005C00BF017
:1019880006C00CF060001FF0D9FF600023F0DAFFFA
:10199800600027F0DFFF20EE01F00750D92608503D
:1019A800DA2260002BF0DFFF20EE02F00750D92684
:1019B8000850DA2260002FF0DFFF20EE03F0075016
:1019C800D9260850DA22600033F0DFFF1200400EFB
:1019D8000001B061F2EF0CF0F4EF0CF00CEF0DF039
:1019E800000E5A24D96EDA6A010EDA22DF503D0160
:1019F800EA6F5A2A3F0E5A6404EF0DF006EF0DF015
:101A080008EF0DF0000E5A6E0001B02B0EEF0DF02E
:101A18003901939912003A0157A115EF0DF017EF0C
:101A28000DF019EF0DF0B2EC0DF03A0157A31FEFCE
:101A38000DF021EF0DF023EF0DF099EC0DF03A01C8
:101A480057A529EF0DF02BEF0DF02DEF0DF080ECE1
:101A58000DF01200556E55C04CF051C04DF052C0FB
:101A68004EF053C04FF054C050F0000E1BEC03F082
:101A7800566E5650D8B443EF0DF045EF0DF049EFD0
:101A88000DF08AEC0EF04BEF0DF099EC0EF0120011
:101A980010BE53EF0DF051EF0DF060EF0DF00FC0D9
:101AA80003F010C004F0FF0E066E056827EC0EF078
:101AB80003C00FF004C010F00FC00BF010C00CF002
:101AC800D8EC04F01200046E010E036E050E041823
:101AD800D8B471EF0DF073EF0DF07EEF0DF0060E38
:101AE8000418D8B47AEF0DF07CEF0DF07EEF0DF00E
:101AF800000E036E035012000001A851A911D8B4BA
:101B080088EF0DF08AEF0DF096EF0DF002D896EF02
:101B18000DF00500FA6EA851FD6EA951FE6EFF6A20
:101B2800FA5012003A01579512000001AA51AB1160
:101B3800D8B4A1EF0DF0A3EF0DF0AFEF0DF002D880
:101B4800AFEF0DF00500FA6EAA51FD6EAB51FE6EB7
:101B5800FF6AFA5012003A01579312000001AC5183
:101B6800AD11D8B4BAEF0DF0BCEF0DF0C8EF0DF021
:101B780002D8C8EF0DF00500FA6EAC51FD6EAD51FC
:101B8800FE6EFF6AFA5012003A01579112003901AD
:101B9800A4950001984B992B995109E1200E985D65
:101BA800D8A0D9EF0DF0DBEF0DF0E2EF0DF0E3EC8C
:101BB8000DF0000E0001996F000E986F12000001E1
:101BC8009E519F11D8B4EBEF0DF0EDEF0DF0F9EF4A
:101BD8000DF002D8F9EF0DF00500FA6E9E51FD6E7A
:101BE8009F51FE6EFF6AFA50120012000001AE51BA
:101BF800AF11D8B402EF0EF004EF0EF010EF0EF0B4
:101C080002D810EF0EF00500FA6EAE51FD6EAF511E
:101C1800FE6EFF6AFA501200120015EF0EF0034A2A
:101C2800042A60000FF0F6FF600013F0F7FFF86A6F
:101C38000800F5500009D8A424EF0EF026EF0EF0A6
:101C480013EF0EF01200035005026F00CCFF07F0EF
:101C58006F00D0FF08F003500602F3500826045026
:101C68000502F350082607C003F008C004F012006C
:101C7800DAEC0EF078EC0EF0C7EC0AF0CEEC0EF0D1
:101C8800A8EC0EF0B5EC0EF051EC0EF066EC0EF090
:101C98006AEC0BF03EEC08F01200010EAE6E200E5E
:101CA800AD6E000EAF6EAB68000EAA6E3901A4953A
:101CB80094852A0E036E1E0E046EF5EC0EF0800E4F
:101CC800AC6E1200420EB96E7C0EB76E000EB66E88
:101CD8003901A39F938F2C0E036E1E0E046EFAEC2F
:101CE8000EF0870EB86E1200000E3901C06F000E9C
:101CF800C16F000EC26F000EC36F000EC46F000EDE
:101D0800C56F000EC66F000EC76F1200BA88020EAC
:101D1800046E040E036EBA0EE82EFED7032EFCD70F
:101D2800042EFAD700D0BA981200BA8A030E046EAD
:101D3800080E036E770EE82EFED7032EFCD7042E6E
:101D4800FAD700F0BA9A1200800E6A6E7F0E696E9A
:101D5800C00E686E2FEE5FF3DF50F30B0409DF6EE1
:101D68001200800E6E6E7F0E6D6EC00E6C6E2FEEC2
:101D78005FF3DF50FC0B0109DF6E1200036E030EE8
:101D88000364C9EF0EF0CCEF0EF0010ECDEF0EF0AC
:101D9800000E1200600E3901D96F000EDB6F000EC5
:101DA800DD6F050EDF6F000EDE6F1200D28A39017B
:101DB800808F8485838F8389120003C0A6F004C0B6
:101DC800A7F0120003C0A2F004C0A3F0120003C0E1
:101DD800A4F004C0A5F0120003C0A0F004C0A1F054
:101DE800120003C09EF004C09FF0120003C0AEF0C2
:101DF80004C0AFF0120003C0A8F004C0A9F012009C
:101E080003C0AAF004C0ABF0120003C0ACF004C0D9
:101E1800ADF012003901A39FFAEC0DF01200010792
:0C1E280001001200120012001200120053
:10FE4C00003031323334353637383941424344454A
:10FE5C004600810182018301840101010201030139
:10FE6C00040152454A454354204D4F56453A2041D2
:10FE7C00584953204E4F542052454144590D0A00C5
:10FE8C00434F4D4D414E44204641494C45443A2048
:10FE9C004E4F2041434B0D0A000D0A2D2D2D204DA8
:10FEAC004153544552204D454E55202D2D2D0D0AB4
:10FEBC00002D2D2D2D2D2D2D2D2D2D2D2D2D2D2D93
:10FECC002D2D2D2D0D0A0052454A45435420494EE7
:10FEDC0056414C494420415849530D0A0052454A59
:10FEEC0045435420494E56414C494420434D440D02
:10FEFC000A000D0A4D415354455220434F4E534F67
:10FF0C004C450D0A0031203D204D4F5645204142B5
:10FF1C005320316D6D0D0A0035203D204D4F564557
:10FF2C002041425320356D6D0D0A0041434B205347
:10FF3C004551204D49534D415443480D0A0067200B
:10FF4C003D20474554205354415455530D0A004EFF
:10FF5C004F2041434B2052455452590D0A00554EE7
:10FF6C004B4E4F574E20434D440D0A0065203D200B
:10FF7C00454D53544F500D0A0072203D20524553AD
:10FF8C0045540D0A0068203D20484F4D450D0A0090
:10FF9C0073203D2053544F500D0A003F203D204DFF
:10FFAC00454E550D0A0041434B20434D443D0054F2
:10FFBC0058204641494C3D00545820415849533D26
:10FFCC00002053544154453D005258204552523D57
:10FFDC000020464C4147533D00204641554C543D72
:10FFEC0000205345513D00205245533D00205452B2
:04FFFC00593D00006B
:020000040020DA
:10000000FFFFFFFFFFFFFFFFFFFFFFFFFFFFFFFF00
:020000040030CA
:0A0000008CFFF7FF9FFFFFDFFFFFFB
:00000001FF
